:020000040800F2
:1000000008040020F11A00081D0100080D01000875
:100010001101000815010008190100080000000086
:1000200000000000000000000000000021010008A6
:100030002501000800000000290100082D0100082A
:10004000391B0008391B0008391B0008391B000840
:10005000391B0008391B0008391B0008391B000830
:10006000391B0008391B0008391B0008391B000820
:10007000391B0008391B0008391B0008391B000810
:10008000391B0008391B0008391B0008391B000800
:10009000391B0008391B0008391B0008391B0008F0
:1000A000391B000821020008391B0008391B000811
:1000B000391B0008391B0008391B0008391B0008D0
:1000C000391B0008391B0008391B0008391B0008C0
:1000D000391B0008391B0008391B0008391B0008B0
:1000E000391B0008391B0008391B000800000000FC
:1000F0000000000000000000000000000000000000
:1001000000000000000000005FF808F1FEE700BFFB
:10011000FEE700BFFEE700BFFEE700BF704700BF7D
:10012000704700BF704700BF704700BF38B5364CFE
:10013000364D236828460133236000F0CBFB2B7833
:100140007F2B02D1324B01221A70324B1B78032BCA
:100150000FD8DFE803F0392615022F4A2F49FF2375
:10016000402480200C7088704B7013705370937013
:10017000D3702A4800F080FB274800F005FB38BD0B
:100180002168264B0020FF2211F080011A70587060
:10019000987024D0204B10461A705A709A70D870FC
:1001A000E7E721681D4B0022FF20C1F3C1111A703F
:1001B0009A705870184BC9B101291A701AD1587029
:1001C0009A700020D870D4E72168144B8024002056
:1001D000FF2211F480715C7098701A70DAD10E4BA6
:1001E0000846197059709970D870C2E71870597024
:1001F0009970E6E702295A7008BF9870E1D0032988
:100200009A70DED1D870B4E764160020381100204F
:100210005C12002020110020241100203411002045
:1002200008B51648012101F053FC00B908BD134878
:10023000012101F059FC124B1A88DAB9114B12490D
:10024000D3F8882CD3F88C0C02F2FF32121A0988EA
:10025000C2F3090209090AB904221A70D3F88C2CD6
:10026000501CC0F3090003EB4202C3F88C0CA2F847
:10027000881408BD013A1A8008BD00BF002C014057
:10028000000000200804002028110020F8B50A4DC5
:1002900007460E4601F07AF9286801F0B7F956B121
:1002A00028680024395901F0D3F92B680434181D4B
:1002B000A6422860F6D8F8BD3C11002010B50E4CBF
:1002C00040F2DB512046002200F01EFB0B4B0022C7
:1002D00001210B481A6000F04DF90A4800F0E2FADB
:1002E000094800F0F9F9094800F06AFA2046BDE82B
:1002F000104000F053BB00BF4011002064160020E6
:100300002811002038110020241100203411002071
:10031000F8B5164D164C4FF47A712846002200F0BD
:100320000FFE0822134620464FF0005100F0B8FBA4
:10033000D4F8883C0F4EC4F88C3CD4F8107D0E489D
:100340000E4A0F494FF0100C002385F80CC1C4F879
:10035000147DA4F88434A3602370A36123612B70FF
:10036000A5F80E31338003701160F8BD44110020F0
:100370000804002060160020201100203C110020FD
:10038000004000082DE9F04F83B0FFF797FFFFF71B
:10039000BFFF6E484FF4806101F0E4F9D0B96C4CB6
:1003A0006C4F2278DFF8C881042A6B4D684B2CD142
:1003B0004FF0010A0026D4F8142DD4F8103DDFF8D0
:1003C00090E1D31A5B060ED0BAF1000F0ED163484C
:1003D000002E38D0624800F06DF900F0F9FA61485B
:1003E00000F030FBFEE7BAF1000F08D00222002334
:1003F0003A702B702B78002BFCD0FFF789FF002E72
:10040000E8D12278524B042AD2D0D3F88C2CD3F8DE
:10041000883CD31AC3F309031F2B40F29480D4F80D
:100420008C1CD4F8882C4A4B8A1AC2F3090218464D
:10043000002A00F088801A78002A7CD0012A7ED019
:1004400000F044FCEBE7DEF8103D0EEB0302013355
:1004500003F07F0392F8901CCEF8103D00F0D2FD1F
:1004600002380328A7D8DFE800F0043D3D0201264A
:10047000A1E7B8F800C03C4BDFF8E0900CF00300B7
:1004800003EB00204FF0010B4FF4807209F10101E2
:1004900087F800B0CDF804C001F050FBDDF804C0CF
:1004A0002C4B0CEB0B0292B2A8F8002012F00302C6
:1004B0001BD02E49D4F8103D00224FF0100E03201F
:1004C000C4F8143DC4F87814C4F8741489F80020F2
:1004D000A9F80E21C4F87C24A4F8842489F80CE13E
:1004E000207068E74FF0010A65E74FF0030E1E48E1
:1004F0004FF4806183F800E08DE80C00FFF7C6FE42
:10050000D4F8881C009AC4F88C1CD4F810ED019B18
:1005100010200221C4F814ED89F80020A9F80E215A
:10052000A4F88424A260A261226189F80C0183F8F6
:1005300000B021703FE7184600F066FB6FE71846F1
:1005400000F090FB6BE74FF0000A33E7000C01402E
:1005500008040020201100205C120020441100201B
:1005600028110020004000086012002000FCFFFF5E
:10057000601600202DE9F04792B000253F230124AA
:1005800080460F46474801A9ADF804308DF8064073
:100590008DF80750DFF818A101F08AF8424800F002
:1005A0004BFF062620224FF400534FF4807C4FF47B
:1005B000806E3D4807A94FF080090F921093CDF847
:1005C00034C0CDF838E0CDF8208009950B95119511
:1005D000CDF81CA00A96CDF8309000F0ADFF214672
:1005E000314800F0C9FF314800F04CFE4FF4602262
:1005F0004FF400632D4802A902958DF80C408DF848
:100600000D408DF818600492059300F071FE27B339
:10061000224633462548042100F0C0FE234801212C
:1006200000F08AFE214800F09BFE204800F09EFE6C
:100630000028FAD11D4800F09DFE1C4800F0A0FEE5
:100640000028FAD11948012100F080FE1748012145
:1006500000F09AFE12B0BDE8F087394622461348F2
:10066000072300F09BFE214610480222072300F0DA
:1006700095FE0E4802210322072300F08FFE0B484F
:1006800003210422072300F089FE05210A460748BA
:10069000072300F083FE324604480421072300F0BC
:1006A0007DFEBBE700080140080002400024014035
:1006B0004C24014010B5074C0021204600F064FE98
:1006C0002046002100F042FE20460021BDE81040F7
:1006D00000F032BE00240140F0B5294C89B04FF43F
:1006E00070720127694618232648ADF800200825B6
:1006F00000268DF803308DF8027000F0D9FF3F23FB
:100700002046ADF80830ADF80450ADF80A60ADF8F9
:1007100006608DF80C6001F0A5F9204601A901F0F2
:1007200061F86023204604A9ADF81030ADF81270CE
:10073000ADF81660ADF8186001F078F8204629464B
:1007400001F098F9204604A901F0AEF820462946A8
:1007500001F098F9204604A901F0EEF82046294658
:1007600001F09AF9204604A901F02EF92046294605
:1007700001F09AF92046394601F05CF909B0F0BD64
:1007800000080040000C014038B50C4CC17805460B
:100790008908204601F092F9A9782046890801F0DD
:1007A0008FF969782046890801F08CF9297820466C
:1007B0008908BDE8384001F087B900BF0008004053
:1007C000F0B589B0294C01266946802318252848B0
:1007D000ADF800308DF803508DF8026000F068FF2E
:1007E00069460323234808278DF80350ADF80030ED
:1007F00000258DF8026000F05BFF3F232046ADF836
:100800000830ADF80470ADF80A50ADF806508DF818
:100810000C5001F027F9204601A900F0E3FF602306
:10082000204604A9ADF81030ADF81260ADF81650AE
:10083000ADF8185001F038F82046394601F022F999
:10084000204604A901F078F82046394601F024F941
:10085000204604A901F0B8F82046394601F024F9F1
:100860002046314601F0E6F809B0F0BD0004004032
:1008700000080140000C014038B5094C417805469C
:100880008908204601F01CF9A9782046890801F062
:1008900019F9297820468908BDE8384001F014B9D3
:1008A0000004004010B5FF2182B0022201F0BCF923
:1008B0004FF4406401224823054801A9ADF80440E3
:1008C0008DF806208DF8073000F0F2FE02B010BD62
:1008D000000C014070B50B4D044606784FF4806162
:1008E000284600F03FFF7600F6B263783043207070
:1008F0004FF4006128465D0000F034FFEDB228435C
:10090000607070BD000C014030B5144685B00D46D6
:1009100000F0F0FB2CB14FF000604FF4804100F08C
:10092000A7FC44F60C20012100F038FF44F2060039
:10093000012100F03FFF0120014600F023FF4FF4AA
:10094000404000F015FF00241348ADF80850ADF802
:100950000440ADF80A40ADF806408DF80C4001F0B7
:1009600081F801A90C4800F03DFF01210A4801F07F
:1009700061F84FF4A06000F039FC192201236846A9
:100980008DF801408DF802408DF800208DF803307D
:1009900000F036FC05B030BD002C014070B4084BAF
:1009A000084A0948F0265A60002580F82360072489
:1009B00001219D600A461C60044870BC01F048B8E3
:1009C00010E000E03F19010000ED00E0002C0140C4
:1009D000164A174810B4174B4FF0FF310424C2F8E1
:1009E0008010C2F88410C2F88011C2F8841104602B
:1009F0001968114A41F00101196014680F49104843
:100A0000214011601968002421F0847121F48031A3
:100A10001960196821F480211960136823F4FE031A
:100A2000136004605DF8044B704700BF00E100E014
:100A300010E000E000100240A01002400000FFF8AB
:100A40004011024010B54468006800F04FFBA04719
:100A500010BD00BF70B51C26044632460021383058
:100A600001F0E2F84FF400753246002104F1540021
:100A700001F0DAF82A46002104F1700001F0D4F800
:100A80002A4604F51C70002101F0CEF8B4F8802449
:100A90000023A4F882242361A361A4F8703470BDFC
:100AA00070B4104C064654F8220034460022855E8D
:100AB00002320E2AE56104F10404F8D100224FF459
:100AC0000020C6F88C2C7060C6F8882CA6F88034FC
:100AD000C6F8142D71613046C6F8102D70BCFFF7B2
:100AE000B9BF00BFFC1C00082DE9F007B0F88094E6
:100AF000B0F8708409F1FF3708F5807C0024012FDD
:100B00001FFA8CFC25460FDD0123C3EB0C02D2B289
:100B100000EB42020133B2F970609BB2B2F970226D
:100B2000BB4235441444F0DB002944D0C9EB0C0C23
:100B30001FFA8CFC0CF1020200EB4803D2B23832EF
:100B4000B3F97070B3F970A230F9126085EAE579F3
:100B5000A9EBE57984EAE471A1EBE4712F44A244A6
:100B6000BF1B4944C6EB0A0686EAE679A9EBE6799B
:100B70000CF1010208F1FF0387EAE77CACEBE77CAC
:100B800001EB8101CC44D2B2DBB2890800EB420216
:100B900000EB43038C45B2F87090B2F87082B3F862
:100BA0007020B3F8703210D9B0F882343446013373
:100BB0003D46A0F88234002DACBF02200020002C5E
:100BC000A8BF0130BDE8F00770470FFA89F90FFAA6
:100BD00088F8A944A04412B21BB2C2EB0902C3EBCD
:100BE000080382EAE277A7EBE27783EAE376A6EBF3
:100BF000E3763E448E42DED9B0F882141C464B1E8A
:100C00001546A0F88234D6E710B416E0D0F8881C58
:100C1000426800EB4103B3F88844836824B201338F
:100C20000131A4EB2224C1F309012244B3F5805F12
:100C3000C0F8881C426083600BD2D0F88C2CD0F8AE
:100C4000883CD31AC3F30903002BDFD15DF8044BB2
:100C50007047002301228360C36002705DF8044B7B
:100C6000704700BF70B41CE0D0F8884C416800EBBE
:100C70004403B3F8883482681BB2A3EB212303FB3F
:100C800003F6C56801320134C4F309040B4405EBD3
:100C90002615B2F5805FC0F8884C4360C56082605D
:100CA0000AD2D0F88C2CD0F8883CD31AC3F30903AD
:100CB000002BD9D170BC70470023B5F5F03F83609D
:100CC000C360EED302230370F4E700BF2DE9F041C7
:100CD0000446D4F88C2CD4F8883CD31AC3F3090307
:100CE000002B00F0FB80D4F814C02769D4F8881CCE
:100CF00067443D0E914805F1400204EB4103B3F80F
:100D00008834D2B230F91280626830F915601BB2B3
:100D1000A3EB2223C8F1000803FB08F806FB03F647
:100D200001311344C1F3090100224FEA2828361289
:100D30006360C4F8881CC4F85480A6631546104646
:100D4000234602E0D3F854809E6BD96904321C2AF2
:100D500008FB010006FB015503F10403F2D1234611
:100D600000229E6ED96C043A12F1180FDE661965E6
:100D7000A3F10403F5D100282378ACBF4FF001089C
:100D80004FF0FF38002DACBF01224FF0FF32022B95
:100D90001CBF08FB05F802FB1088A66908BFC5EB5D
:100DA000000806EB4606B4F8702406EB08018E1026
:100DB0000CEBE10C2D1204EB4201001207EBC6070D
:100DC0002761A661C4F814C0A1F87050A1F87002A0
:100DD000B4F8821401320139D2B289B2A4F8702475
:100DE000A4F8821449B9B4F88024032BA4F882240F
:100DF00025D0052B13D0022B03D0032B7FF469AF32
:100E000028E02046FFF770FE38B9B4F88434013387
:100E10009BB2202BA4F8843462D02378EDE72046DF
:100E20000121FFF761FED4F8143DE218013382F886
:100E3000900C03F07F02C4F8142D2378DDE7D4F87A
:100E4000143D04215A1C02F07F02234483F8901CB5
:100E5000C4F8142DB4F87064B4F8805406F58076A4
:100E6000B6B26F00002D67D0002213461146B21AA9
:100E7000D2B204EB42029D42B2F970C094BF01208D
:100E80004FF0FF300CFB001103F10103B2F97022A7
:100E90009BB294BF4FF0FF300120BB4200FB021118
:100EA0001A46E4DBD4F87C348B42B8BFC4F87C1417
:100EB0000029BCBF0023C4F87C34D4F874348B42BE
:100EC00007DDD4F87824934203DDD4F87C249342E0
:100ED00017D0C4F87834C4F87414FAE6BDE8F08189
:100EE000D4F8101DA3F584630322C4F87C04A4F88D
:100EF0008404C4F8141DC4F87834C4F8743422701F
:100F0000A8E7A6EB5502D2B204EB4202B2F9700098
:100F10000028DEDAB2F97022002ADADDB4F884247F
:100F2000013D013292B2042AA4F8842404BF0522B0
:100F30002270A4F88254CCE73946B3E704000020BD
:100F4000002310B4102480F80C41A0F8101180F890
:100F500012210370A0F80E31A0F80A31C0F8143144
:100F60005DF8044B704700BF90F80C310B41DB0774
:100F700006D504290AD8DFE801F0283C063214001F
:100F8000032303707047022380F80C3190F80D3171
:100F900033B90122A0F806314370A0F8083102707D
:100FA0007047B0F80E31B0F8102101339BB29A426D
:100FB000A0F80E3102D8B0F80A3103BB1622102374
:100FC00080F80C2180F80D31704790F80D3108221F
:100FD000013BDBB280F80D3180F80C21D8E790F8A6
:100FE0000D310122013BDBB280F80D3180F80C217C
:100FF000CEE70C2380F80C3190F80D31C8E70523BB
:1010000003707047037870B50A4604469BB1012B04
:101010000FD1B0F80651B0F8080161194E780130CF
:1010200080B2324304284A70A4F8080108D0920024
:101030004A70184670BDFFF797FF2378184670BDB9
:101040000135ADB20022B5F5827FA4F80651A4F8AF
:10105000082102D02C446270EBE7214D621C04F29F
:1010600001104FF0FF3312F8011B5940C9B255F877
:101070002110824281EA1323F5D194F8021194F8E9
:101080000101090494F8042141EA006094F8031175
:101090000243DB4342EA01229A4207D00423237031
:1010A000B4F80A210132A4F80A21C2E794F81231F7
:1010B0000222227093B1D4F8143100220948A118F9
:1010C0004D7800FB03F085EA13650132064BB2F55B
:1010D000807F4D700344F1D1C4F814310223DFE75F
:1010E000601D00080D6619005FF36E3C80F30888F0
:1010F000704700BF3A4B10B419683A4A41F00101F9
:1011000019605C6883B022405A601A68002122F09E
:10111000847222F480321A601A684FF41F0022F49D
:1011200080221A605A6822F4FE025A609860009188
:1011300001911A6842F480321A6003E0009BB3F513
:10114000A06F0AD0264B1B6803F400330193009B69
:1011500001330093019B002BF0D0214B1B6813F44B
:10116000003318BF01230193019B012B00D0FEE740
:101170001D4A1B4B116841F010011160116821F0EC
:1011800003011160116841F0020111605A685A6050
:101190005A685A605A6842F480625A605A6822F467
:1011A0007C125A605A6842F4E8125A601A6842F097
:1011B00080721A600A4B1A689201FBD55A6822F0B5
:1011C00003025A605A6842F002025A60044B5B689C
:1011D00003F00C03082BF9D103B05DF8044B704702
:1011E000001002400000FFF80020024040F0BF6005
:1011F000024B40F40030D860704700BF00ED00E0C3
:10120000C37830B45BB90378012103F01F02914029
:1012100030BC5B09144A203342F823107047134B4B
:101220004478DB680F22DB43C3F30223C3F10401DC
:1012300022FA03F38C408578017803EA0502224301
:1012400001F160431201D2B203F5614383F8002338
:101250000378012103F01F02914030BC024A5B0970
:1012600042F82310704700BF00E100E000ED00E00D
:1012700021F0604121F07F01014B084398607047E5
:1012800000ED00E008B5174B984212D0164B98427B
:101290001BD0164B984200D008BD4FF400400121EE
:1012A00000F094FABDE808404FF40040002100F03F
:1012B0008DBA4FF40070012100F088FABDE80840B3
:1012C0004FF40070002100F081BA4FF480600121DA
:1012D00000F07CFABDE808404FF48060002100F087
:1012E00075BA00BF0024014000280140003C0140C5
:1012F00043680A6823F4702330B423F480730C79B4
:10130000134343EA0423436085688C68CA68094B29
:1013100022432B404D79134343EA450383600B7C02
:10132000C26A013BDBB222F4700242EA0353C36299
:1013300030BC7047FDF7F1FF836819B923F0010352
:101340008360704743F0010383607047836819B975
:1013500023F480738360704743F480738360704725
:10136000836843F008038360704700BF8068C0F360
:10137000C0007047836843F004038360704700BF78
:101380008068C0F380007047836819B923F4A00314
:101390008360704743F4A00383607047092970B4E9
:1013A0001FD9A1F10A0404EB44040726A64003FA5E
:1013B00004F4C568062A25EA060343EA0403C36069
:1013C0001DD90C2A29D970BC0D3A02EB82021F23C9
:1013D000934001FA02F2C16A21EA03031A43C2628E
:1013E000704701EB41040726A64003FA04F405699F
:1013F000062A25EA060343EA04030361E1D870BC28
:10140000013A02EB82021F23934001FA02F2416B80
:1014100021EA03031A4342637047073A02EB820250
:101420001F23934070BC01FA02F2016B21EA03030F
:101430001A430263704700BF0168324A002321F05B
:10144000010190420160036043608360C36044D047
:101450002D4B984225D02D4B984230D02C4B9842A2
:1014600034D02C4B984223D02B4B98423BD02B4B63
:1014700098420FD02A4B98423CD02A4B984210D029
:10148000294B98421BD0294B98421FD0284B984299
:101490000ED0704753F87C2C42F0706243F87C2CDD
:1014A000704753F8182C42F0F00243F8182C70479C
:1014B00053F8542C42F4702243F8542C704753F8DC
:1014C0002C2C42F4706243F82C2C704753F8402CBB
:1014D00042F4704243F8402C7047164B5A6842F071
:1014E0000F025A60704753F8682C42F4700243F8B8
:1014F000682C704753F8042C42F00F0243F8042C78
:10150000704700BF080002401C000240300002404B
:1015100044000240580002406C000240800002403B
:10152000080402401C04024030040240440402400B
:1015300058040240000002408A68F0B40C6A0B694B
:1015400014434A691C438B69CE69224307684D6A7C
:1015500013438C6A1E43354327F4FF43CE680F685C
:101560004A682C4323F0700323430360466087607E
:10157000C260F0BC704700BF036819B923F00103D3
:101580000360704743F0010303607047024B034957
:10159000034A59605A6070470020024023016745A2
:1015A000AB89EFCD084BDA68D1070BD4DA68520764
:1015B00001D502207047DB6813F0100F0CBF042028
:1015C00003207047012070470020024010B582B010
:1015D0000446FFF7E7FF012812D1A4B1FF23002240
:1015E00001920193019B2BB1019B013B0193019B54
:1015F000002BF9D1FFF7D6FF012804F1FF34ECD01E
:101600000CB102B010BD052002B010BD38B50546C2
:1016100040F6FF70FFF7DAFF042800D038BD0B4C0E
:1016200040F6FF70236943F002032361656123697B
:1016300043F040032361FFF7C9FF0528EED022697C
:1016400041F6FD731340236138BD00BF0020024006
:1016500070B5002382B005460F200C460193FFF7BA
:10166000B5FF042801D002B070BD104EA3B232699C
:101670000F2042F0010232612B80FFF7A7FF042800
:1016800008D00528EFD0326941F6FE73134033616C
:1016900002B070BD02350195019B240C1C800F2007
:1016A000FFF794FF0528EED1DDE700BF00200240E0
:1016B000F0B4CD78EB0648BF8B78098805F00F06AB
:1016C00048BF1E4311F0FF0F20D00768002302E03F
:1016D0000133082B19D001229A4002EA01049442F6
:1016E000F6D19A004FF00F0C0CFA02FC06FA02F247
:1016F00027EA0C07282D47EA020731D0482D03F1CD
:10170000010308BF0461082BE5D10760FF2923D935
:101710004768002302E00133082B1CD0012403F1A9
:10172000080204FA02F202EA01049442F3D19A0098
:101730004FF00F0C0CFA02FC06FA02F227EA0C0733
:10174000282D47EA020709D0482D03F1010308BFFD
:101750000461082BE2D14760F0BC70474461DAE7CE
:101760004461B5E7836819420CBF0020012070472F
:10177000034B5A6822F4404210435860704700BF40
:1017800000100240044B5A6919B922EA000058615E
:10179000704710435861704700100240044B9A692B
:1017A00019B922EA000098617047104398617047A8
:1017B00000100240044BDA6919B922EA0000D8612E
:1017C00070471043D861704700100240044BDA683C
:1017D00019B922EA0000D86070471043D8607047FA
:1017E00000100240038830B403F08F0303800588A3
:1017F000CA884B88ADB215431D430B4B8C880A88B1
:10180000ADB2984205808485028507D003F5006358
:10181000984203D030BC0123838270470B7A30BCDE
:101820000386012383827047002C0140038CF0B4AF
:1018300023F001031B041B0C0384028C0D89848894
:101840004F88038B2F4322F0020223F07303154DC0
:1018500012041B040E88120CBFB21B0CA84247EAEC
:101860000202A4B243EA06030AD005F50065A842C5
:1018700006D0C98884800383F0BC818602847047C7
:101880004F898D89CE8922F008023A432E438F88F2
:1018900047F6FF4522F00402B6B225403A4346EA35
:1018A0000504E6E7002C0140038CF0B423F010039C
:1018B0001B041B0C0384028C848822F02002038BFF
:1018C0000D89120423F4E643120C42EA05124F88F4
:1018D0001B040E88174D1B0C42EA071243EA06232D
:1018E000A84292B2A4B29BB20AD005F50065A84204
:1018F00006D0C98884800383F0BC018702847047C6
:1019000022F08002B1F80AC092B247F2FF368F8906
:1019100042EA0C1C26404FF6BF758A88CC890CEA37
:10192000050546EA870645EA021246EA840492B2B1
:10193000A4B2DEE7002C0140038CF0B423F48073E2
:101940001B041B0C0384028C0D8922F40072848812
:101950001204838B120C42EA05224F8823F0730392
:10196000184D1B040E8842EA07221B0CA84292B2B3
:10197000A4B243EA06030AD005F50065A84206D0E2
:10198000C98884808383F0BC81870284704722F4F5
:101990000062B1F80AC092B244F6FF768F8942EA3B
:1019A0000C2C26404FF6FF358A88CC890CEA0505B9
:1019B00046EA071645EA022246EA041492B2A4B2A5
:1019C000DEE700BF002C0140038CF0B423F4805309
:1019D0001B041B0C0384028C848822F40052838B2A
:1019E0000D89120423F4E643120C42EA05324F88B3
:1019F0001B040E880E4D1B0C42EA073243EA0623F5
:101A0000A84292B2A4B29BB20BD005F50065A842E1
:101A100007D0C98884808383F0BCA0F8401002847A
:101A200070478D89C4F30D0444EA8514A4B2F0E72D
:101A3000002C0140038829B923F001039B059B0D6D
:101A4000038070479BB243F001030380704700BFDF
:101A500083899BB21AB923EA010181817047194336
:101A600081817047038923F007031B041B0C03814A
:101A7000704700BF038B23F008031B041B0C1943A2
:101A800001837047038B23F400631B041B0C43EAA0
:101A900001218BB203837047838B23F008031B045F
:101AA0001B0C194381837047838B23F400631B0451
:101AB0001B0C43EA01218BB28383704781867047F8
:101AC0000187704781877047A0F84010704700BFBA
:101AD000038A828911EA030092B203D011420CBF3B
:101AE00000200120704700BFC94389B201827047BE
:101AF000002100F004B80B4B5B58435004310A48F6
:101B00000A4B42189A42FFF4F6AF094A00F003B8B4
:101B1000002342F8043B074B9A42FFF4F9AFFEF76B
:101B200031FC7047782100080000002008020020E6
:101B30000804002068160020FFF7FEBF844641EA33
:101B4000000313F0030349D1403A23D30B68036029
:101B50004B6843608B688360CB68C3600B6903612B
:101B60004B6943618B698361CB69C3610B6A036213
:101B70004B6A43628B6A8362CB6AC3620B6B0363FB
:101B80004B6B43638B6B8363CB6BC36340304031E0
:101B9000403ADBD230320BD30B6803604B684360B2
:101BA0008B688360CB68C36010301031103AF3D279
:101BB0000C3205D351F8043B40F8043B043AF9D207
:101BC000043208D0D2071CBF11F8013B00F8013BDA
:101BD00001D30B8803806046704700BF082A13D3E7
:101BE0008B07B1D010F00303AED0C3F10403D21AB7
:101BF000DB071CBF11F8013B00F8013BA4D331F80F
:101C0000023B20F8023B9FE7043AD9D3013A11F88E
:101C1000013B00F8013BF9D20B7803704B7843701D
:101C20008B78837060467047F0B4840743D0541EAD
:101C3000002A3ED0CDB2034603E0621E002C38D00D
:101C4000144603F8015B9A07F7D1032C2AD9CDB2C9
:101C500045EA05250F2C45EA054515D9A4F11007DD
:101C60003F0903F1100606EB07161A46156055608A
:101C70009560D5601032B242F8D104F00F040137FC
:101C8000032C03EB07130DD91E462246043A032A00
:101C900046F8045BFAD8221F22F0030204321344F0
:101CA00004F003042CB1C9B21C4403F8011BA34285
:101CB000FBD1F0BC704714460346C6E7ECFF280092
:101CC000C9FF4000FF004000C9FF2800EBFFCDFF27
:101CD0007B00FF007B00CDFFEBFF0000BAFF190087
:101CE000B400FF00B4001900BAFF0000DDFF55008A
:101CF000CD00FF00CD005500DDFF0000000000001A
:101D00000000000000000000BC1C0008CC1C000803
:101D100000000000DC1C000800000000EC1C0008B3
:101D2000000000000000000000000000401D00084E
:101D3000000000000000000000000000501D00082E
:101D40002D009500E300FF00E30095002D0000004A
:101D500000006200B400EC00FF00EC00B400620080
:101D600000000000963007772C610EEEBA510999F9
:101D700019C46D078FF46A7035A563E9A395649E55
:101D80003288DB0EA4B8DC791EE9D5E088D9D29779
:101D90002B4CB609BD7CB17E072DB8E7911DBF90D5
:101DA0006410B71DF220B06A4871B9F3DE41BE84F9
:101DB0007DD4DA1AEBE4DD6D51B5D4F4C785D38355
:101DC00056986C13C0A86B647AF962FDECC9658AF9
:101DD0004F5C0114D96C0663633D0FFAF50D088D55
:101DE000C8206E3B5E10694CE44160D5727167A2F9
:101DF000D1E4033C47D4044BFD850DD26BB50AA555
:101E0000FAA8B5356C98B242D6C9BBDB40F9BCAC78
:101E1000E36CD832755CDF45CF0DD6DC593DD1ABD4
:101E2000AC30D9263A00DE518051D7C81661D0BFF8
:101E3000B5F4B42123C4B3569995BACF0FA5BDB854
:101E40009EB802280888055FB2D90CC624E90BB1F8
:101E5000877C6F2F114C6858AB1D61C13D2D66B654
:101E60009041DC760671DB01BC20D2982A10D5EFB8
:101E70008985B1711FB5B606A5E4BF9F33D4B8E814
:101E8000A2C9077834F9000F8EA8099618980EE1B8
:101E9000BB0D6A7F2D3D6D08976C6491015C63E614
:101EA000F4516B6B62616C1CD83065854E0062F238
:101EB000ED95066C7BA5011BC1F4088257C40FF594
:101EC000C6D9B06550E9B712EAB8BE8B7C88B9FCB8
:101ED000DF1DDD62492DDA15F37CD38C654CD4FB14
:101EE0005861B24DCE51B53A7400BCA3E230BBD4B8
:101EF00041A5DF4AD795D83D6DC4D1A4FBF4D6D314
:101F00006AE96943FCD96E34468867ADD0B860DAB7
:101F1000732D0444E51D03335F4C0AAAC97C0DDD13
:101F20003C710550AA41022710100BBE86200CC937
:101F300025B56857B3856F2009D466B99FE461CE93
:101F40000EF9DE5E98C9D9292298D0B0B4A8D7C7B7
:101F5000173DB359810DB42E3B5CBDB7AD6CBAC013
:101F60002083B8EDB6B3BF9A0CE2B6039AD2B1742F
:101F70003947D5EAAF77D29D1526DB048316DC738B
:101F8000120B63E3843B64943E6A6D0DA85A6A7A2F
:101F90000BCF0EE49DFF099327AE000AB19E077D8B
:101FA00044930FF0D2A3088768F2011EFEC20669AF
:101FB0005D5762F7CB67658071366C19E7066B6E0B
:101FC000761BD4FEE02BD3895A7ADA10CC4ADD672F
:101FD0006FDFB9F9F9EFBE8E43BEB717D58EB0608B
:101FE000E8A3D6D67E93D1A1C4C2D83852F2DF4F2F
:101FF000F167BBD16757BCA6DD06B53F4B36B2488B
:10200000DA2B0DD84C1B0AAFF64A0336607A04412E
:10201000C3EF60DF55DF67A8EF8E6E3179BE69468A
:102020008CB361CB1A8366BCA0D26F2536E26852AE
:1020300095770CCC03470BBBB91602222F2605550A
:10204000BE3BBAC5280BBDB2925AB42B046AB35C2E
:10205000A7FFD7C231CFD0B58B9ED92C1DAEDE5B8A
:10206000B0C2649B26F263EC9CA36A750A936D026E
:10207000A906099C3F360EEB8567077213570005CA
:10208000824ABF95147AB8E2AE2BB17B381BB60CEE
:102090009B8ED2920DBED5E5B7EFDC7C21DFDB0B4A
:1020A000D4D2D38642E2D4F1F8B3DD686E83DA1F6E
:1020B000CD16BE815B26B9F6E177B06F7747B718CA
:1020C000E65A0888706A0FFFCA3B06665C0B01116E
:1020D000FF9E658F69AE62F8D3FF6B6145CF6C16CA
:1020E00078E20AA0EED20DD75483044EC2B303396E
:1020F000612667A7F71660D04D476949DB776E3ECA
:102100004A6AD1AEDC5AD6D9660BDF40F03BD837ED
:1021100053AEBCA9C59EBBDE7FCFB247E9FFB53049
:102120001CF2BDBD8AC2BACA3093B353A6A3B4246D
:102130000536D0BA9306D7CD2957DE54BF67D923C9
:102140002E7A66B3B84A61C4021B685D942B6F2A6D
:1021500037BE0BB4A18E0CC31BDF055A8DEF022DC9
:10216000F8B500BFF8BC08BC9E467047F8B500BF84
:08217000F8BC08BC9E46704754
:10217800401F00000000320064009600C800FA000A
:102188002C015E018F01C001F1012202520282027C
:10219800B102E1020F033D036B039803C503F1038A
:1021A8001C04470471049B04C304EB04130539059C
:1021B8005F058405A805CB05ED050E062F064E061E
:1021C8006C068A06A606C206DC06F5060E07250773
:1021D8003B0750076407760788079807A707B507DE
:1021E800C207CE07D807E107E907F007F607FA079D
:1021F800FD07FF070008FF07FD07FA07F607F007C6
:10220800E907E107D807CE07C207B507A707980768
:1022180088077607640750073B0725070E07F5066A
:10222800DC06C206A6068A066C064E062F060E06B1
:10223800ED05CB05A80584055F0539051305EB04F5
:10224800C3049B04710447041C04F103C5039803E9
:102258006B033D030F03E102B10282025202220224
:10226800F101C0018F015E012C01FA00C80096003F
:10227800640032000000CEFF9CFF6AFF38FF06FFB3
:10228800D4FEA2FE71FE40FE0FFEDEFDAEFD7EFD19
:102298004FFD1FFDF1FCC3FC95FC68FC3BFC0FFCEB
:1022A800E4FBB9FB8FFB65FB3DFB15FBEDFAC7FAB9
:1022B800A1FA7CFA58FA35FA13FAF2F9D1F9B2F917
:1022C80094F976F95AF93EF924F90BF9F2F8DBF8A2
:1022D800C5F8B0F89CF88AF878F868F859F84BF817
:1022E8003EF832F828F81FF817F810F80AF806F838
:1022F80003F801F800F801F803F806F80AF810F8EE
:1023080017F81FF828F832F83EF84BF859F868F82B
:1023180078F88AF89CF8B0F8C5F8DBF8F2F80BF909
:1023280024F93EF95AF976F994F9B2F9D1F9F2F9A2
:1023380013FA35FA58FA7CFAA1FAC7FAEDFA15FB3E
:102348003DFB65FB8FFBB9FBE4FB0FFC3BFC68FC2A
:1023580095FCC3FCF1FC1FFD4FFD7EFDAEFDDEFDCF
:102368000FFE40FE71FEA2FED4FE06FF38FF6AFF94
:082378009CFFCEFF00000000F5
:0400000508000000EF
:00000001FF
