:020000040800F2
:1040000020020020C16700081D4100080D41000882
:104010001141000815410008194100080000000086
:104020000000000000000000000000002141000826
:104030002541000800000000294100082D4100082A
:10404000096800080968000809680008096800088C
:10405000096800080968000809680008096800087C
:10406000096800080968000809680008096800086C
:10407000096800080968000809680008096800085C
:10408000096800080968000809680008096800084C
:10409000096800080968000809680008096800083C
:1040A0000968000845410008096800080968000817
:1040B000096800080968000809680008096800081C
:1040C000096800080968000809680008096800080C
:1040D00009680008096800080968000809680008FC
:1040E0000968000809680008096800080000000065
:1040F00000000000000000000000000000000000C0
:1041000000000000000000005FF808F1FEE700BFBB
:10411000FEE700BFFEE700BFFEE700BF704700BF3D
:10412000704700BF704700BF704700BF034B044893
:104130001A6801321A6000F0C3BE00BF0C070020ED
:104140002C02002070B53548012102F029FB00B98E
:1041500070BD3248012102F02FFB314A4FF48051EB
:10416000304B116151611A782F4903EB42004488AA
:10417000900340F480502043013280B202F00302E9
:1041800088811A7042B3294C294BB4F81623198838
:104190008A4240D0274E1A803378274D1BBB274BCD
:1041A000B4F8182319888A4203D0224901201A80C2
:1041B0000870234B93F84531062B1CD02B881E4AE0
:1041C000002BC5D0013B9BB21380002BC0D11D48F2
:1041D000BDE8704001F0A0BD1B4B1A8892B20132BD
:1041E00092B21A80CFE7802316482B8001F09AFD07
:1041F00000233370D3E7154C238801339BB2B3F50A
:10420000A06F2380DAD180230E482B8001F08AFD35
:1042100000232380D2E7084DC1E700BF002C0140F6
:10422000000C01402002002000380040D403002090
:10423000000000208E0300208C03002002000020DC
:104240002C0200209803002090030020D0030020BF
:1042500070B5114E40F23121012230460F4C01F071
:10426000E1FC0F4801F0D0FB0E4D204601F03EFD71
:1042700020460D4C01F050FD284600F0C5F92046BF
:1042800000F082FC29462246084800F0A3FD304693
:10429000BDE8704001F010BD940300209803002099
:1042A00020020020D40300209C0300202C020020C8
:1042B0002DE9F84F404CFFF7CBFF94F8453133B967
:1042C0003D4801F03BFA94F84531002BF8D03B4FC4
:1042D00039484FF0000900F0DDFD394DD7F810A343
:1042E000DFF8E480374ECB46334C204601F026FA07
:1042F0002B88334A9BB2002BF6D0B2F800E0B4F81A
:1043000042311FFA8EFE0EF1FF3ECAEB0303B4F8F2
:10431000401194F855011FFA8EFE5B00A2F800E0F0
:104320001944002838D194F85621D2B981F31001EC
:1043300089B2224800F018FBB7F81A03B7F81C132B
:10434000B7F81E23B7F82033C0F30B00C1F30B01FD
:10435000C2F30B02C3F30B037080B180F280338190
:10436000C2E745F25452934222DD4AF6AA22934212
:1043700007DDBBF1000F04D009F101095FFA89F9EB
:104380008346B7F808334B4598BF4FF0000909EB57
:10439000490337F82310CBE70B4800F003FCB8F8CB
:1043A0002800B8F82A10B8F82C20B8F82E30CBE73F
:1043B0004FF0010BE5E700BF2C020020D4030020E2
:1043C00090030020200200209C030020B0F814334A
:1043D0002DE9F0474FF4467909FB03F9304C314B96
:1043E0004C449C420646C0F80C1305463AD90023BB
:1043F000A0F8143301F0E8FE2B4801F025FF2B480C
:1044000001F022FF2A4801F01FFF2A4801F01CFF9B
:10441000294FDFF8AC80DFF890A05446C4EB0609C2
:104420000AF5457A204659F80410043401F02EFFAD
:104430005445F7D106F54572002115F8013B1944A2
:10444000954289B2F9D1384601F050FF4046B6F89E
:10445000141301F04BFFB6F814330133A6F81433EC
:10446000BDE8F08701F0B0FE144B24F47F704B449C
:1044700023F47F7320F0030023F0030309F1006AA3
:1044800083420AF5F83ADFF838800B4F04D001F088
:10449000DBFEC8444F44C0E7C8444F44BDE700BFFB
:1044A00018F30108FFFF010800F0010800F40108FB
:1044B00000F8010800FC010814F30108FFEF0108EF
:1044C00016F30108B0F814332DE9F0474FF446799C
:1044D00009FB03F9304C314B4C449C420646C0F872
:1044E000101305463AD90023A0F8143301F06CFEEE
:1044F0002B4801F0A9FE2B4801F0A6FE2A4801F046
:10450000A3FE2A4801F0A0FE294FDFF8AC80DFF8B7
:1045100090A05446C4EB06090AF5457A204659F89E
:104520000410043401F0B2FE5445F7D106F545728B
:10453000002115F8013B1944954289B2F9D138465A
:1045400001F0D4FE4046B6F8141301F0CFFEB6F8E1
:1045500014330133A6F81433BDE8F08701F034FEBC
:10456000144B24F47F704B4423F47F7320F003003A
:1045700023F0030309F1006A83420AF5F83ADFF8F1
:1045800038800B4F04D001F05FFEC8444F44C0E7B1
:10459000C8444F44BDE700BF18F30108FFFF0108FE
:1045A00000F0010800F4010800F8010800FC01080F
:1045B00014F30108FFEF010816F3010870B400239B
:1045C00085B0ADF80430ADF80630064602AB0022E7
:1045D00023F8022B04AA9342F9D1334606F540751D
:1045E00001AC07CC0C3343F80C0C43F8081C43F81F
:1045F000042C9D42F4D10023A6F80833A6F80A3310
:1046000005B070BC704700BF2DE9F041234E07464E
:1046100000F545754FF004084FF4457238463146B1
:1046200002F0F4F83B46002213F8014B2244AB425F
:1046300092B2F9D1B6F81433B6F81613934225D0D6
:10464000174BA6F546769E4208F1FF38E4D10023C9
:10465000012247F6FF7187F8013387F8033387F8A3
:10466000053387F80733A7F81433C7F80C3387F8F6
:10467000002387F8022387F8042387F80623C7F866
:1046800010133846BDE8F041FFF798BF4145D7D138
:1046900008F10108A7F81483BDE8F08160FC010867
:1046A000E8EC0108B0F8083370B41BB3164C03EB08
:1046B000430304FB03F40546002C15DD621002EBF6
:1046C000420635F8263005EB86068B4205D214E00B
:1046D00035F824408C4212D31A46531003EB43049E
:1046E00005EB8406002AF3D1281A074B801003FB40
:1046F00000F39BB2184670BC704713462246D31A8B
:104700005C1E06F10C05D7E7ABAAAAAA30B40E4A84
:104710008411631C32F8135032F814208302AC1A4F
:104720009BB203FB04F3094CC0F57F4002EB23432B
:10473000FF3034F81120C01A02FB00F030BC03EB4C
:10474000E030C0F30F10704744A3000844A10008F4
:1047500070B42A4EB2F5004F4FF6FF744FEA420292
:104760008CBF2546002592B288BF34467BB101F547
:10477000C07110F8110018BBB2F5004F03D3C4EBA1
:10478000C434C4F3CF30284480B270BC7047521098
:1047900004FB02F405EBE435ADB200EB4100184C2C
:1047A00090F801232912174B34F8110033F8123016
:1047B000401B03FB00F005EBE03080B270BC70479B
:1047C000012819D9104B023853F82030910903EB16
:1047D0004100408833F811309202C11A92B2491058
:1047E00002FB01F203EBD2335B1004FB03F405EB95
:1047F000E43080B270BC70471346F5E70100FFFF5C
:104800003887000844A10008040000202DE9F8437F
:10481000B0F80873804616468946D7B1FFF742FFC5
:10482000E0B903467A1E9042BCBF023087B2BB4259
:104830000FD203EB430438F824405D1CC9EB040499
:10484000B442C4F1000201DAB2420ADBABB29F42C9
:10485000EFD84FF6FF7000B2BDE8F883431E9BB25D
:10486000E0E798B200B2BDE8F88300BF2DE9F04759
:10487000B0F808830746B8F1400F9246894647D002
:10488000FFF710FF804586464FEA400C33D808F109
:10489000FF36B6B233B29E4511DC013E5C1CB6B2A7
:1048A00003EB430307EB830504EB440433B207EB4C
:1048B0008404734595E8070084E80700EDDA0CEB03
:1048C0000E02920027F80290B7F80A3308F10108A7
:1048D0003A44591CA7F80A135380A7F808830CEB35
:1048E0000E0007EB800051460822043002F004F865
:1048F0000120BDE8F0870CEB000337F823304B456F
:10490000EDD008F1FF36B6B233B29E45C5DDD6E72D
:104910000020BDE8F08700BFF8B5B0F80863054691
:104920000F460EB90020F8BDFFF7BCFE4400221868
:1049300035F822200346BA42F4D1013EB04201DBF1
:104940000EE05C00591C1C4401EB41028BB205EBEC
:10495000840405EB8202B34207CA84E80700F0DB57
:10496000A5F808630120F8BD2DE9F04FB0F80873F1
:1049700089B004460E462FBB00F22A3100F23235D0
:104980006B1A5A1040F0C58004F23532FF2305F847
:10499000013B9542FAD14FF6FF73A4F81633A4F801
:1049A00018330025B4F8220394F80113FFF7AEFE84
:1049B0000235082DA4F81A0304F10204F2D109B05B
:1049C000BDE8F08FFFF76EFE1FFA80F80546A4F8E9
:1049D000168358BB034603EB430304EB830704220F
:1049E000B918002A40F09B807B88654903F00703D3
:1049F00003EB4303194404F23230032201F07CFF3D
:104A0000002D40F0AF802B46AB460BEB050234F88F
:104A10002220F31A961BB6B29BB2B34284BF05F1B3
:104A200001081FFA88F8A4F81883BAE787427CD0F7
:104A3000421E53009E4696444FEA400B4FEA8E0EAC
:104A40000BEB000C4FEA8C0C029334F80E30019201
:104A500034F80C20F71A3F04D31AB7FBF3F7BB095D
:104A60005B000393DDF80C90BB029BB27A1009F156
:104A7000020905930792A644A444CDF8109022465B
:104A800000230690A24692F800130EEB03000CEBF5
:104A900003053C4CA1F102098088AD88002946D16C
:104AA000B7F5004F04D32D1AC5EBC535C5F3CF318B
:104AB00002330144082BA2F8221302F10202E2D1D0
:104AC000069D2F4954460023BEF80200BCF8022080
:104AD00000F0070002F0070202EB420200EB400088
:104AE000184402EB030911F809900A5CE018C2EBC4
:104AF000090907FB09F9013302EB1942032B80F87E
:104B00003223E1D1029BDDF804904B4434F823308A
:104B10007BE7520000F2223001F0EEFE34E7520053
:104B200004F2223001F0E8FE5EE7431E53E701295C
:104B30001FD954F82940DDF80C902D1A34F80910CB
:104B4000DDF8109034F80940DDF81490641A641010
:104B500009FB04F401EBD431491005FB01F1C1F369
:104B6000CF31A5E76A1E5300019202934FEA450B2D
:104B7000C8E7079C291A01FB04F1C1F3CF3197E77D
:104B8000586A00080400002000234360038043802B
:104B9000038100F10A031230002223F8022B98420D
:104BA000FAD1704700292DE9F84F0446C0F2D280AF
:104BB0004FF6FF76B142B8BF0E464FEA263E0EF1E1
:104BC0000107C6F30B067D4B0EEB4E0E07EB4707B6
:104BD0009E441F4400231EF80320FD5CE018AD1A1C
:104BE00006FB05F5013302EB2532032B80F830205C
:104BF000F1D16368002BC0F2B180714ACD1782FBFE
:104C0000010270480A44C5EB223200FB02116E48D3
:104C10004D116E1C50F8266050F8250001F01F0160
:104C2000351A01FB05F100EB511191406569DB0379
:104C30002944C818C21813446161A0612362E2616B
:104C4000B4F908300022002B2688DFF8849127462B
:104C5000254602F101086FDD08F0030004EB400077
:104C6000B0F90A0003FB00114FEA263E57480B0E2D
:104C70000EEB0E2E8644581C1EF803C01EF800B022
:104C80000EF2011A1AF803E01AF800A021F07F4191
:104C9000CCEB0B0B01FB0BFBCEEB0A0A0AFB01FA78
:104CA0004FEA0C2C4FEA0E2EACF5004C0CEB2B4CC3
:104CB000AEF5004E1FFA8CFC0EEB2A4E0FFA8CFB61
:104CC0004FEA061A0FFA8EFECBEB0E0E1FFA8AFA87
:104CD0000AFB0EFA19F8033019F800E00CEB2A4031
:104CE000C3EB0E0E0EFB01F180B20FFA80FE1B0229
:104CF000A3F500430EF5004E03EB214122444FEA99
:104D00002E2EA0F50040698180B282F824E00021B7
:104D1000FFF7FCFC2885638842461E44042A07F1FD
:104D2000040705F10205B6B212D0B4F9083079696A
:104D3000002B02F101088FDCD01C00F0030004EB13
:104D40004000B0F90A0002F1010803FB10118BE7E3
:104D5000BDE8F88F0026B646012734E741F2B03EA1
:104D60000EFB03F3184F4FEAE33E0022234614489C
:104D7000CD1780FB0160134E0844C5EB203006FBC5
:104D80000016751105F1010C57F82CC057F8255085
:104D900006F01F06C5EB0C0C06FB0CF605EB5615D2
:104DA00005FA00F05E6904320644102A5E61CEEB1B
:104DB000010103F10403DAD1616941E7706A000877
:104DC000D1000DD050ECFFFFBC840008A46A00089D
:104DD000B57B00082DE9F04182B0054648234FF429
:104DE00080662B480F46012401A98DF807309046B4
:104DF000ADF804608DF8064001F094FA05F597705F
:104E000000F08EFD05F5997000F048FE05F23310B4
:104E100000F064FE05F59B7000F0D2FE05F59C7075
:104E2000002100F0DDFC05F58C7605F58673002485
:104E300023F8024B9E42FAD1154BC5F848719B6886
:104E4000384613F4806F0CBF0623234685F845319E
:104E5000C5F84C81A5F85841B5F840114FF40062EF
:104E6000FFF7D4FCD5F84831A5F8500185F8544136
:104E7000D3F80C3385F8574103F00102C3F3400324
:104E800085F8552185F8563102B0BDE8F08100BFA4
:104E90000008014010B54FF400610446074801F0D6
:104EA0009BFA48B9D4F84801B4F84211FFF70AFB5D
:104EB000D4F80431C4F8083110BD00BF000C014023
:104EC0002DE9F04F00F59B76044683B0304600F0A4
:104ED0008FFE234621460022181B855D802D60D061
:104EE000002D40F08280DFF820E5D1F82471DEF853
:104EF000008093F82CC1C7EB08070197BCF1000FA5
:104F000040F0A180B7F5487F00F3C3800132022A48
:104F100001F1040103F10103DED1304623460021F3
:104F2000B3F8185130F8026FC5EB4515AA19B3F85C
:104F30000C51521105F13F0796B2BA42A5F13F0557
:104F4000A3F8186101DCAA4218DAD4F8085104F178
:104F5000040E05F101080EEBC5074FF0000908F03B
:104F60001F08DFF8A4C40EF835907A607980C4F881
:104F70000881DCF800202260A3F80C6101310529CA
:104F800003F10203CCD194F84531062B00F21482D0
:104F9000DFE813F0CF01DC006301F1018701870135
:104FA0009E00D4F8085104F1040805F1010908EB4A
:104FB000C50C0027DFF850E44FF0040A09F01F0980
:104FC00008F835A0ACF80220CCF80470C4F80891B9
:104FD000DEF80050DEF800E02560C1F824E183F837
:104FE0002C71855D002D3FF47EAF7F2D8ED1D1F8E1
:104FF000240100288AD093F82C51002D86D1DFF8A7
:1050000008E404F10408DEF80090D4F8087109F10E
:10501000010907F1010BC0EB090908EBC70C0BF004
:105020001F004FF0040A08F837A0CCF80490ACF841
:105030000220C4F80801DEF800002060C1F8245105
:1050400083F82C5162E7019F40F6B83C67457FF733
:105050005DAFD4F808C104F104090CF1010A09EBB1
:10506000CC084FF0040B0AF01F0A09F83CB0C8F84E
:105070000470A8F80220C4F808A1DEF800702760C8
:1050800083F82C51C1F82451855D7F2D7FF43EAF0C
:10509000ADE7D4F8085104F1040805F1010908EB63
:1050A000C50C4FF0040A09F01F0908F835A0CCF828
:1050B0000470ACF80220C4F80891DEF80050012713
:1050C000256083F82C71855D7F2D7FF41FAF8EE7FF
:1050D000D4F84831B4F84021B3F82213B2F5805F18
:1050E0004FEA212184F82E11B3F824134FEA21212D
:1050F00084F82F11B3F826134FEA212184F83011D8
:10510000B3F828334FEA232384F8313180F05781F4
:105110000023FF2284F8332184F8343184F83531B8
:1051200094F85C3104F59975002B00F090802846C6
:1051300000F0CEFC04F5977504F2331000F02AFD60
:10514000284600F045FC03B0BDE8F08FD4F84831A4
:10515000B4F85021B3F8220311B2001284F82E01E2
:10516000B3F8240301314FEA202084F82F01B3F86B
:1051700026034FEA202084F83001B3F828034FEAD1
:10518000202084F8310193F8320384F8330193F836
:10519000330384F8340193F8340384F8350100F0C4
:1051A0002F8102EB420233F82220B4F84011B4F808
:1051B0005A318A1A02FB02F20133B4F858019114F1
:1051C0009BB20F29A8BF0F2103F00F0200F58070DA
:1051D00004F599759142A4F85801A4F85A3128466B
:1051E00000F3FC8000F074FC94F854313BB1B4F946
:1051F0005831002BC0F20081284600F063FC94F87F
:105200005531002B00F0D880D4F84C3193F824208D
:1052100084F82E2193F8252084F82F2193F8262056
:1052200084F8302193F8272084F8312193F8302036
:1052300084F8332193F8312084F8342193F8322014
:1052400084F8352193F82430802B3FF670AF284640
:1052500000F038FC04F597756EE7B4F85831002279
:10526000A3F580739BB203F5804703F5004603F571
:1052700040452D123F1236121812FF2184F8315189
:10528000A4F8583184F82F7184F8306184F82E0125
:1052900084F8332184F8352184F8341104F59775A6
:1052A0004AE7B4F8582100233032A4F8582104F515
:1052B0009775B4F952219A4214BF00226FF0000290
:1052C000EA540133042BF4D194F845312022052B04
:1052D0000CBF1021C02184F83411B4F8521184F8A5
:1052E00035210AB20CBFFF201020013284F83301AF
:1052F00071D05A1F53425341C9B2D4F84801B4F88F
:105300005821FFF725FA94F8332194F8343194F8B2
:10531000351100FB02F200FB03F300FB01F0121455
:105320001B14001484F8332184F8343184F83501D7
:1053300002E7B4F85831FF2280339BB203F54046B0
:1053400003F5004503F580402D12361200121912A4
:1053500084F82F51A4F8583184F82E6184F8300174
:1053600084F8311184F8332184F8342184F835210C
:1053700004F59775E0E6B4F858310022A3F5807380
:105380009BB203F5804703F5004603F54045FF2136
:105390003F1236122D121812A4F8583184F82F71CA
:1053A00084F8306184F8315184F82E0184F8331187
:1053B00084F8342184F8352104F59775BCE6B2F5FC
:1053C000704F0ED90023FF2284F8333184F8353131
:1053D00084F83421A4E64FF6FF7094E700F072FBE6
:1053E00002E7B4F842210023120A84F8352184F838
:1053F000333184F8343193E6284600F069FBFEE649
:1054000004F59975F8E600BF0C07002090F84531C7
:1054100070B5062B044600F0898090F854010028EE
:1054200040F088804A8812B1012A15D070BD4A68C0
:1054300040F6B8318A4238DCB2F5487F40F38880C4
:1054400094F85531002B70D105224FF6FF7384F884
:105450004521A4F8523170BDB4F840517F2D10D8C9
:1054600094F85721013AD2B256B2093684F857213E
:1054700007DA94F8552184F8570182F0010284F884
:1054800055214A6840F6B8318A421FDCB2F5487FA0
:1054900046DD94F85531002B47D104224FF6FF73B7
:1054A00084F84521A4F8523170BD94F8562194F83F
:1054B0005531002A0CBF002102211943D4F84801BC
:1054C000FEF784FF022384F8453170BDD4F848010B
:1054D000FFF774F84FF40062D4F84801B4F84011B3
:1054E000FFF794F9D4F84831A4F85001B3F8082331
:1054F0007AB9B4F81851B4F81A01B4F81C11B4F818
:105500001E21A3F82A53A3F82C03A3F82E13A3F803
:1055100030230022032384F8552184F8453170BDDF
:10552000012B2FD0012384F8453170BD002380F872
:105530005C3170BD002384F85431D4F84801B4F8CC
:1055400040114FF40062FFF761F9A4F8500170BDFB
:10555000012BE7D194F85531002BE3D1B4F9503148
:10556000013343D094F857310133DBB25AB2042AE5
:1055700084F85731E1DD94F8563183F0010384F863
:105580005631DAE794F85531002BCBD1B4F85031CD
:105590001AB2013228D0D4F8480103EB430330F8A3
:1055A0002310FFF7B9F9B4F840114FF40062D4F8B2
:1055B0004801FFF72BF9D4F84831A4F85001B3F8AB
:1055C0000823002AB1D1B4F81851B4F81A01B4F87C
:1055D0001C11B4F81E21A3F82A53A3F82C03A3F836
:1055E0002E13A3F8302370BD2946DEE7D4F8480116
:1055F000B4F8401104F58672FFF738F99DE700BF53
:1056000090F8453110B5062B044613D090F855217B
:105610004AB94A88032A4FD9042A16D190F854313E
:10562000002B5DD010BD4B88032BFBD8DFE803F0C7
:105630003F210E2A4B88032BF4D8D0F848014A6842
:1056400000EB4303A3F82A2310BD10BD4B68D0F82C
:105650004C1113F4004F9BB2A3F500435BD103FB45
:1056600003F2D213524202EB420213449B104B60EE
:1056700010BD4A68D0F84C31A2F5004242F34E0208
:105680005A8010BD8B88D0F84C11A3F5004303FB62
:1056900003F2002B4FEAE232D8BF524202EB420241
:1056A00013449B1103EB83035B000B8110BDD0F807
:1056B0004C314A681A8010BD012B1CD9042B2CD008
:1056C000052BAFD14B68D0F8481103EB430343F3EC
:1056D000CF3302F5C070A4F8522101F8103010BD8C
:1056E000D0F84801B4F840114FF40062FFF78EF88B
:1056F000A4F8500196E7B0F8503118B20130D4F850
:10570000480115D003EB430300EB8303496803EB27
:105710004202918010BD4B6010BD4968D0F84831FD
:10572000091203EB4203A0F8522183F8011310BDC4
:105730004B6800EB4202A2F82A3310BD30B5D0F816
:105740000821D0F8043183B0D31ADA06044618BF12
:105750006D4608D124E0F2B1D4F80821D4F8043120
:10576000D31ADB061CD0D4F8043104EBC302043294
:1057700092E8030085E803009DF80020013303F060
:105780001F03042AC4F80431E5D1019B0122DBB9CF
:1057900084F85C21E0E720466946FFF731FFDBE74C
:1057A0000E4B226819688A1AB2F5FA7F0AD91A686C
:1057B00094F84531226063B9012384F84531002310
:1057C00084F8573103B030BD20466946FFF71EFE0E
:1057D000C2E7023BDBB2012BF1D8EDE70C0700205A
:1057E0002DE9F04792B000253F23012480460F4663
:1057F000474801A9ADF804308DF806408DF80750F0
:10580000DFF818A100F08EFD424800F033FC0626B8
:1058100020224FF400534FF4807C4FF4806E3D48BB
:1058200007A94FF080090F921093CDF834C0CDF83E
:1058300038E0CDF8208009950B951195CDF81CA086
:105840000A96CDF8309000F095FC2146314800F0E2
:10585000B1FC314800F034FB4FF460224FF4006398
:105860002D4802A902958DF80C408DF80D408DF859
:1058700018600492059300F059FB27B32246334683
:105880002548042100F0A8FB2348012100F072FB09
:10589000214800F083FB204800F086FB0028FAD165
:1058A0001D4800F085FB1C4800F088FB0028FAD159
:1058B0001948012100F068FB1748012100F082FB24
:1058C00012B0BDE8F087394622461348072300F09E
:1058D00083FB214610480222072300F07DFB0E487F
:1058E00002210322072300F077FB0B480321042247
:1058F000072300F071FB05210A460748072300F043
:105900006BFB324604480421072300F065FBBBE72C
:105910000008014008000240002401404C240140DE
:10592000F0B5294C89B04FF47072012769461823ED
:105930002648ADF80020082500268DF803308DF8A4
:10594000027000F0EFFC3F232046ADF80830ADF8C0
:105950000450ADF80A60ADF806608DF80C6000F0F8
:10596000E9FE204601A900F0A5FD6023204604A918
:10597000ADF81030ADF81270ADF81660ADF81860E3
:1059800000F0BCFD2046294600F0DCFE204604A9BC
:1059900000F0F2FD2046294600F0DCFE204604A976
:1059A00000F032FE2046294600F0DEFE204604A923
:1059B00000F072FE2046294600F0DEFE2046394601
:1059C00000F0A0FE09B0F0BD00080040000C01404E
:1059D00038B50C4CC17805468908204600F0D6FE43
:1059E000A9782046890800F0D3FE69782046890806
:1059F00000F0D0FE297820468908BDE8384000F044
:105A0000CBBE00BF00080040F0B5224E87B007466D
:105A1000694630464FF48052032410231E4DADF8E2
:105A200000208DF802408DF8033000F07BFC3046FA
:105A300069464FF4204218238DF80240ADF800204B
:105A400000248DF80330022600F06CFC4FF4827CB9
:105A50004FF4006E4FF400720723284601A9ADF8F9
:105A600006C0ADF808E0ADF80E20ADF81430ADF882
:105A70000440ADF80C40ADF81040ADF81240ADF860
:105A80000A6000F0E9FC2846012100F005FD3C70A9
:105A900007B0F0BD000C01400038004010B582B0E6
:105AA000032210232024064801A9ADF804408DF8F4
:105AB00006208DF8073000F035FC02B010BD00BFA5
:105AC000000C0140014B20225A617047000C01403C
:105AD000014B20221A617047000C0140F0B589B0DB
:105AE000294C01266946802318252848ADF8003046
:105AF0008DF803508DF8026000F014FC6946032312
:105B0000234808278DF80350ADF8003000258DF8A4
:105B1000026000F007FC3F232046ADF80830ADF8E6
:105B20000470ADF80A50ADF806508DF80C5000F036
:105B300001FE204601A900F0BDFC6023204604A917
:105B4000ADF81030ADF81260ADF81650ADF8185041
:105B500000F012FD2046394600F0FCFD204604A965
:105B600000F052FD2046394600F0FEFD204604A913
:105B700000F092FD2046394600F0FEFD20463146F9
:105B800000F0C0FD09B0F0BD000400400008014075
:105B9000000C014038B5094C41780546890820467B
:105BA00000F0F6FDA9782046890800F0F3FD297879
:105BB00020468908BDE8384000F0EEBD00040040F2
:105BC00010B5FF2182B0022200F0FCFE4FF44064C9
:105BD00001224823054801A9ADF804408DF80620AC
:105BE0008DF8073000F09EFB02B010BD000C0140A4
:105BF00070B50B4D044606784FF48061284600F0DE
:105C0000EBFB7600F6B26378304320704FF400610E
:105C100028465D0000F0E0FBEDB22843607070BDE7
:105C2000000C014030B5144685B00D4600F080F8F8
:105C30002CB14FF000604FF4804100F037F944F68A
:105C40000C20012100F0E4FB44F20600012100F0E9
:105C5000EBFB0120014600F0CFFB4FF4404000F089
:105C6000C1FB00241348ADF80850ADF80440ADF86E
:105C70000A40ADF806408DF80C4000F05BFD01A92C
:105C80000C4800F017FC01210A4800F03BFD4FF4DE
:105C9000A06000F0C9F81922012368468DF8014080
:105CA0008DF802408DF800208DF8033000F0C6F822
:105CB00005B030BD002C014070B4084B084A0948BB
:105CC000F0265A60002580F82360072401219D609A
:105CD0000A461C60044870BC00F022BD10E000E0E1
:105CE0003F19010000ED00E0002C014030B5094CE7
:105CF00083B0402503221023204601A9ADF80450AB
:105D00008DF806208DF8073000F00CFB656103B0BC
:105D100030BD00BF00080140014B40221A617047AE
:105D200000080140014B40225A61704700080140C1
:105D30003A4B10B419683A4A41F0010119605C68A5
:105D400083B022405A601A68002122F0847222F443
:105D500080321A601A684FF41F0022F480221A6001
:105D60005A6822F4FE025A609860009101911A6804
:105D700042F480321A6003E0009BB3F5A06F0AD0B2
:105D8000264B1B6803F400330193009B01330093FF
:105D9000019B002BF0D0214B1B6813F4003318BF7C
:105DA00001230193019B012B00D0FEE71D4A1B4BF1
:105DB000116841F010011160116821F003011160B8
:105DC000116841F0020111605A685A605A685A60BD
:105DD0005A6842F480625A605A6822F47C125A600F
:105DE0005A6842F4E8125A601A6842F080721A60E7
:105DF0000A4B1A689201FBD55A6822F003025A60D6
:105E00005A6842F002025A60044B5B6803F00C03CC
:105E1000082BF9D103B05DF8044B70470010024025
:105E20000000FFF80020024040F0BF60024B40F449
:105E30000030D860704700BF00ED00E0C37830B498
:105E40005BB90378012103F01F02914030BC5B096C
:105E5000144A203342F823107047134B4478DB6810
:105E60000F22DB43C3F30223C3F1040122FA03F33D
:105E70008C408578017803EA0502224301F16043F2
:105E80001201D2B203F5614383F8002303780121A4
:105E900003F01F02914030BC024A5B0942F8231014
:105EA000704700BF00E100E000ED00E021F060413C
:105EB00021F07F01014B08439860704700ED00E03E
:105EC00008B5174B984212D0164B98421BD0164B70
:105ED000984200D008BD4FF40040012100F0B0FA14
:105EE000BDE808404FF40040002100F0A9BA4FF48B
:105EF0000070012100F0A4FABDE808404FF40070E2
:105F0000002100F09DBA4FF48060012100F098FA62
:105F1000BDE808404FF48060002100F091BA00BF56
:105F20000024014000280140003C014043680A6809
:105F300023F4702330B423F480730C79134343EAC1
:105F40000423436085688C68CA68094B22432B4050
:105F50004D79134343EA450383600B7CC26A013BDE
:105F6000DBB222F4700242EA0353C36230BC7047D2
:105F7000FDF7F1FF836819B923F0010383607047CF
:105F800043F0010383607047836819B923F4807379
:105F90008360704743F4807383607047836843F085
:105FA00008038360704700BF8068C0F3C00070477B
:105FB000836843F004038360704700BF8068C0F3C8
:105FC00080007047836819B923F4A0038360704789
:105FD00043F4A00383607047092970B41FD9A1F16D
:105FE0000A0404EB44040726A64003FA04F4C56837
:105FF000062A25EA060343EA0403C3601DD90C2AD6
:1060000029D970BC0D3A02EB82021F23934001FA9A
:1060100002F2C16A21EA03031A43C262704701EB2C
:1060200041040726A64003FA04F40569062A25EA76
:10603000060343EA04030361E1D870BC013A02EBB2
:1060400082021F23934001FA02F2416B21EA03030B
:106050001A4342637047073A02EB82021F239340C0
:1060600070BC01FA02F2016B21EA03031A430263D6
:10607000704700BF0168324A002321F001019042BD
:106080000160036043608360C36044D02D4B98423D
:1060900025D02D4B984230D02C4B984234D02C4BED
:1060A000984223D02B4B98423BD02B4B98420FD099
:1060B0002A4B98423CD02A4B984210D0294B984208
:1060C0001BD0294B98421FD0284B98420ED07047C6
:1060D00053F87C2C42F0706243F87C2C704753F8E4
:1060E000182C42F0F00243F8182C704753F8542C47
:1060F00042F4702243F8542C704753F82C2C42F48D
:10610000706243F82C2C704753F8402C42F47042D4
:1061100043F8402C7047164B5A6842F00F025A6001
:10612000704753F8682C42F4700243F8682C7047AB
:1061300053F8042C42F00F0243F8042C704700BFC0
:10614000080002401C0002403000024044000240AF
:10615000580002406C0002408000024008040240E7
:106160001C0402403004024044040240580402402F
:10617000000002408A68F0B40C6A0B6914434A6953
:106180001C438B69CE69224307684D6A13438C6AAE
:106190001E43354327F4FF43CE680F684A682C43FB
:1061A00023F070032343036046608760C260F0BC45
:1061B000704700BF036819B923F0010303607047FB
:1061C00043F0010303607047024B0349034A5960DF
:1061D0005A6070470020024023016745AB89EFCD2C
:1061E000084BDA68D1070BD4DA68520701D50220D0
:1061F0007047DB6813F0100F0CBF042003207047BA
:10620000012070470020024010B582B00446FFF71D
:10621000E7FF012812D1A4B1FF23002201920193CC
:10622000019B2BB1019B013B0193019B002BF9D1F9
:10623000FFF7D6FF012804F1FF34ECD00CB102B017
:1062400010BD052002B010BD38B5054640F6FF7000
:10625000FFF7DAFF042800D038BD0B4C40F6FF7082
:10626000236943F0020323616561236943F040031E
:106270002361FFF7C9FF0528EED0226941F6FD73BF
:106280001340236138BD00BF0020024070B50023D9
:1062900082B005460F200C460193FFF7B5FF042896
:1062A00001D002B070BD104EA3B232690F2042F08F
:1062B000010232612B80FFF7A7FF042808D00528D0
:1062C000EFD0326941F6FE731340336102B070BD06
:1062D00002350195019B240C1C800F20FFF794FFD1
:1062E0000528EED1DDE700BF0020024070B504466E
:1062F0000F200D46FFF788FF042800D070BD084E20
:106300000F20336943F0010333612580FFF77CFFE1
:106310000528F3D0326941F6FE731340336170BD36
:1063200000200240F0B4CD78EB0648BF8B78098896
:1063300005F00F0648BF1E4311F0FF0F20D007687D
:10634000002302E00133082B19D001229A4002EA0F
:1063500001049442F6D19A004FF00F0C0CFA02FCA3
:1063600006FA02F227EA0C07282D47EA020731D085
:10637000482D03F1010308BF0461082BE5D1076034
:10638000FF2923D94768002302E00133082B1CD0E2
:10639000012403F1080204FA02F202EA0104944221
:1063A000F3D19A004FF00F0C0CFA02FC06FA02F23D
:1063B00027EA0C07282D47EA020709D0482D03F1E8
:1063C000010308BF0461082BE2D14760F0BC7047AD
:1063D0004461DAE74461B5E7836819420CBF0020E5
:1063E00001207047034B5A6822F440421043586022
:1063F000704700BF00100240044B5A6919B922EAE5
:106400000000586170471043586170470010024007
:10641000044B9A6919B922EA000098617047104349
:106420009861704700100240044BDA6919B922EAFA
:106430000000D86170471043D861704700100240D7
:10644000044BDA6819B922EA0000D860704710439B
:10645000D860704700100240F0B40B884C888A88DE
:106460001C43CB8814430A891C434B898F892243E0
:106470000588CE891A433A43324305F44153134306
:106480009BB20380838B0A8A23F400631B041B0CDA
:106490008383F0BC02827047038829B923F040034C
:1064A0001B041B0C038070479BB243F04003038026
:1064B000704700BF038830B403F08F030380058862
:1064C000CA884B88ADB215431D430B4B8C880A8894
:1064D000ADB2984205808485028507D003F500633C
:1064E000984203D030BC0123838270470B7A30BCC2
:1064F0000386012383827047002C0140038CF0B493
:1065000023F001031B041B0C0384028C0D89848877
:106510004F88038B2F4322F0020223F07303154DA3
:1065200012041B040E88120CBFB21B0CA84247EACF
:106530000202A4B243EA06030AD005F50065A842A8
:1065400006D0C98884800383F0BC818602847047AA
:106550004F898D89CE8922F008023A432E438F88D5
:1065600047F6FF4522F00402B6B225403A4346EA18
:106570000504E6E7002C0140038CF0B423F010037F
:106580001B041B0C0384028C848822F02002038BE2
:106590000D89120423F4E643120C42EA05124F88D7
:1065A0001B040E88174D1B0C42EA071243EA062310
:1065B000A84292B2A4B29BB20AD005F50065A842E7
:1065C00006D0C98884800383F0BC018702847047A9
:1065D00022F08002B1F80AC092B247F2FF368F89EA
:1065E00042EA0C1C26404FF6BF758A88CC890CEA1B
:1065F000050546EA870645EA021246EA840492B295
:10660000A4B2DEE7002C0140038CF0B423F48073C5
:106610001B041B0C0384028C0D8922F400728488F5
:106620001204838B120C42EA05224F8823F0730375
:10663000184D1B040E8842EA07221B0CA84292B296
:10664000A4B243EA06030AD005F50065A84206D0C5
:10665000C98884808383F0BC81870284704722F4D8
:106660000062B1F80AC092B244F6FF768F8942EA1E
:106670000C2C26404FF6FF358A88CC890CEA05059C
:1066800046EA071645EA022246EA041492B2A4B288
:10669000DEE700BF002C0140038CF0B423F48053EC
:1066A0001B041B0C0384028C848822F40052838B0D
:1066B0000D89120423F4E643120C42EA05324F8896
:1066C0001B040E880E4D1B0C42EA073243EA0623D8
:1066D000A84292B2A4B29BB20BD005F50065A842C5
:1066E00007D0C98884808383F0BCA0F8401002845E
:1066F00070478D89C4F30D0444EA8514A4B2F0E711
:10670000002C0140038829B923F001039B059B0D50
:10671000038070479BB243F001030380704700BFC2
:1067200083899BB21AB923EA010181817047194319
:1067300081817047038923F007031B041B0C03812D
:10674000704700BF038B23F008031B041B0C194385
:1067500001837047038B23F400631B041B0C43EA83
:1067600001218BB203837047838B23F008031B0442
:106770001B0C194381837047838B23F400631B0434
:106780001B0C43EA01218BB28383704781867047DB
:106790000187704781877047A0F84010704700BF9D
:1067A000038A828911EA030092B203D011420CBF1E
:1067B00000200120704700BFC94389B201827047A1
:1067C000002100F004B80B4B5B58435004310A48D9
:1067D0000A4B42189A42FFF4F6AF094A00F003B898
:1067E000002342F8043B074B9A42FFF4F9AFFDF750
:1067F0005FFD704760AB0008000000202000002013
:106800002002002010070020FFF7FEBF844641EA67
:10681000000313F0030349D1403A23D30B6803600C
:106820004B6843608B688360CB68C3600B6903610E
:106830004B6943618B698361CB69C3610B6A0362F6
:106840004B6A43628B6A8362CB6AC3620B6B0363DE
:106850004B6B43638B6B8363CB6BC36340304031C3
:10686000403ADBD230320BD30B6803604B68436095
:106870008B688360CB68C36010301031103AF3D25C
:106880000C3205D351F8043B40F8043B043AF9D2EA
:10689000043208D0D2071CBF11F8013B00F8013BBD
:1068A00001D30B8803806046704700BF082A13D3CA
:1068B0008B07B1D010F00303AED0C3F10403D21A9A
:1068C000DB071CBF11F8013B00F8013BA4D331F8F2
:1068D000023B20F8023B9FE7043AD9D3013A11F872
:1068E000013B00F8013BF9D20B7803704B78437001
:1068F0008B788370604670478842F0B410D98C184A
:10690000A0420DD28518531E42B121462A4611F8E5
:10691000014D013B02F8014D5C1CF8D1F0BC704701
:106920000F2A44D940EA01039B0744D1A2F1100782
:106930003F0900EB071610360C4603462568103356
:1069400043F8105C6568103443F80C5C54F8085C3C
:1069500043F8085C54F8045C43F8045CB342EDD19E
:106960007B1C02F00F0C1B01BCF1030F1944034404
:1069700023D90E461D46644656F8047B043C032C7E
:1069800045F8047BF8D8ACF1040424F00304043483
:1069900002F0030223442144002ABFD01A4411F814
:1069A000014B03F8014B9342F9D1F0BC7047034609
:1069B000002AF3D1B2E70346F0E76246002AEDD1A0
:1069C000ACE700BFF0B4840743D0541E002A3ED089
:1069D000CDB2034603E0621E002C38D0144603F803
:1069E000015B9A07F7D1032C2AD9CDB245EA0525D8
:1069F0000F2C45EA054515D9A4F110073F0903F10D
:106A0000100606EB07161A46156055609560D560AE
:106A10001032B242F8D104F00F040137032C03EB1B
:106A200007130DD91E462246043A032A46F8045B92
:106A3000FAD8221F22F003020432134404F00304A4
:106A40002CB1C9B21C4403F8011BA342FBD1F0BC1A
:106A5000704714460346C6E7FF0000FF4000FFFFF3
:106A60000040FF0000FF400000FFFF00FFFF00406C
:106A7000FF0000FF2000FFC000FFF000F0FF00C09B
:106A8000FF0020FF0000FF0000FF2000FFC000FF0C
:106A9000FF00C0FF0020FF0000FF2000FFC000C07B
:106AA000FF00800000000000000000000000000067
:106AB00000000000000000000000000000000000D6
:106AC00000000000000000000000000000000000C6
:106AD00000000000000000000000010101010101B0
:106AE0000101010101010101010101020202020291
:106AF0000202020202030303030303030404040467
:106B00000405050505050606060607070707080824
:106B100008090909090A0A0B0B0B0C0C0D0D0D0EC7
:106B20000E0F0F1010111112121313141515161742
:106B3000171819191A1B1B1C1D1E1F1F2021222389
:106B40002425262728292A2B2C2D2E2F303132348C
:106B5000353637393A3B3D3E3F4142444547484A46
:106B60004B4D4F5052545557595B5D5F60626466A0
:106B7000686B6D6F717375787A7C7E818386888B84
:106B80008D909295989B9DA0A3A6A9ACAFB2B5B8E5
:106B9000BBBEC2C5C8CBCFD2D6D9DDE0E4E8ECEFAE
:106BA000F3F7FBFF00000102030405060708090ACA
:106BB0000B0C0D0E0F101112131415161718191AAD
:106BC0001B1C1D1E1F202122232425262728292A9D
:106BD0002B2C2D2E2F303132333435363738393A8D
:106BE0003B3C3D3E3F404142434445464748494A7D
:106BF0004B4C4D4E4F505152535455565758595A6D
:106C00005B5C5D5E5F606162636465666768696A5C
:106C10006B6C6D6E6F707172737475767778797A4C
:106C20007B7C7D7E7F808182838485868788898A3C
:106C30008B8C8D8E8F909192939495969798999A2C
:106C40009B9C9D9E9FA0A1A2A3A4A5A6A7A8A9AA1C
:106C5000ABACADAEAFB0B1B2B3B4B5B6B7B8B9BA0C
:106C6000BBBCBDBEBFC0C1C2C3C4C5C6C7C8C9CAFC
:106C7000CBCCCDCECFD0D1D2D3D4D5D6D7D8D9DAEC
:106C8000DBDCDDDEDFE0E1E2E3E4E5E6E7E8E9EADC
:106C9000EBECEDEEEFF0F1F2F3F4F5F6F7F8F9FACC
:106CA000FBFCFDFEFF0000020406080A0C0E101299
:106CB0001416181A1C1E20222426282A2C2E3032A4
:106CC0003436383A3C3E40424446484A4C4E505294
:106CD0005456585A5C5E60626466686A6C6E707284
:106CE0007476787A7C7E8081838587898B8D8F917D
:106CF000939597999B9D9FA1A3A5A7A9ABADAFB174
:106D0000B3B5B7B9BBBDBFC1C3C5C7C9CBCDCFD163
:106D1000D3D5D7D9DBDDDFE1E3E5E7E9EBEDEFF153
:106D2000F3F5F7F9FBFDFFFDFBF9F7F5F3F1EFEDF7
:106D3000EBE9E7E5E3E1DFDDDBD9D7D5D3D1CFCD93
:106D4000CBC9C7C5C3C1BFBDBBB9B7B5B3B1AFAD83
:106D5000ABA9A7A5A3A19F9D9B99979593918F8D73
:106D60008B8987858381807E7C7A78767472706E59
:106D70006C6A68666462605E5C5A58565452504E43
:106D80004C4A48464442403E3C3A38363432302E33
:106D90002C2A28262422201E1C1A18161412100E23
:106DA0000C0A0806040200FFFEFDFCFBFAF9F8F7E6
:106DB000F6F5F4F3F2F1F0EFEEEDECEBEAE9E8E7EB
:106DC000E6E5E4E3E2E1E0DFDEDDDCDBDAD9D8D7DB
:106DD000D6D5D4D3D2D1D0CFCECDCCCBCAC9C8C7CB
:106DE000C6C5C4C3C2C1C0BFBEBDBCBBBAB9B8B7BB
:106DF000B6B5B4B3B2B1B0AFAEADACABAAA9A8A7AB
:106E0000A6A5A4A3A2A1A09F9E9D9C9B9A9998979A
:106E1000969594939291908F8E8D8C8B8A8988878A
:106E2000868584838281807F7E7D7C7B7A7978777A
:106E3000767574737271706F6E6D6C6B6A6968676A
:106E4000666564636261605F5E5D5C5B5A5958575A
:106E5000565554535251504F4E4D4C4B4A4948474A
:106E6000464544434241403F3E3D3C3B3A3938373A
:106E7000363534333231302F2E2D2C2B2A2928272A
:106E8000262524232221201F1E1D1C1B1A1918171A
:106E9000161514131211100F0E0D0C0B0A0908070A
:106EA00006050403020100FFFFFBF7F3EFECE8E443
:106EB000E0DDD9D6D2CFCBC8C5C2BEBBB8B5B2AF64
:106EC000ACA9A6A3A09D9B989592908D8B88868354
:106ED000817E7C7A787573716F6D6B6866646260B1
:106EE0005F5D5B5957555452504F4D4B4A4847458B
:106EF0004442413F3E3D3B3A3937363534323130FA
:106F00002F2E2D2C2B2A2928272625242322212009
:106F10001F1F1E1D1C1B1B1A1919181717161515D4
:106F20001413131212111110100F0F0E0E0D0D0D60
:106F30000C0C0B0B0B0A0A090909090808080707BA
:106F400007070606060605050505050404040404EE
:106F5000030303030303030202020202020202020A
:106F60000201010101010101010101010101010110
:106F7000010100000000000000000000000000000F
:106F80000000000000000000000000000000000001
:106F900000000000000000000000000000000000F1
:106FA0000000000000000000FF00000000000001E1
:106FB000010203040506080A0C0E1114171B1F23F7
:106FC000272C31363B41474D545A61686F767D849A
:106FD0008B939AA1A8AFB6BCC3C9CFD5DADFE4E9D9
:106FE000EDF1F4F7F9FBFDFEFFFFFFFEFDFBF9F706
:106FF000F4F1EDE9E4DFDAD5CFC9C3BCB6AFA8A19F
:107000009A938B847D766F68615A544D47413B3625
:10701000312C27231F1B1714110E0C0A0806050418
:107020000302010100000000000000000000000059
:107030000000000000000000000000000000000050
:107040000000000000000000000000000000000040
:107050000000000000000000000000000000000030
:107060000000000000000000000000000000000020
:107070000000000000000000000000000000000010
:107080000000000000000000000000000000000000
:1070900000000000000000000000000000000000F0
:1070A00000000000000000000000FFFFFFFFFFFFE6
:1070B000FFFFFFFFFFFFFFFFFFFFFFFFFFFFFFFFE0
:1070C000FFFFFFFFFFFFFFFFFFFFFFFFFFFFFFFFD0
:1070D000FFFFFFFFFFFFFFFFFFFFFFFFFFFFFFFFC0
:1070E000FFFFFFFFFFFFFFFFFFFFFFFFFFFFFFFFB0
:1070F000FFFFFFFFFFFFFFFFFFFFFFFFFFFFFFFFA0
:10710000FFFFFFFFFFFFFFFFFFFFFFFFFFFFFFFF8F
:10711000FFFFFFFFFFFFFFFFFFFFFFFFFFFFFFFF7F
:10712000FFFFFFFFFFFFFFFFFFFF00000000000069
:10713000000000000000000000000000000000004F
:10714000000000000000000000000000000000003F
:10715000000000000000000000000000000000002F
:10716000000000000000000000000000000000001F
:10717000000000000000000000000000000000000F
:1071800000000000000000000000000000000000FF
:1071900000000000000000000000000000000000EF
:1071A00000000000000000000000FF808080808060
:1071B00080808080818182838384858788898B8D8C
:1071C0008F919395989A9DA0A3A6A9ADB0B3B7BA95
:1071D000BEC2C5C9CCD0D3D7DADEE1E4E7EAEDEF31
:1071E000F2F4F6F8F9FBFCFDFEFFFFFFFFFFFEFDEA
:1071F000FCFBF9F8F6F4F2EFEDEAE7E4E1DEDAD7CA
:10720000D3D0CCC9C5C2BEBAB7B3B0ADA9A6A3A0EE
:107210009D9A989593918F8D8B8988878584838398
:107220008281818080808080808080807F7F7F7F5E
:107230007F7F7F7F7E7E7D7C7C7B7A7877767472A1
:10724000706E6C6A6765625F5C5956524F4C484578
:10725000413D3A36332F2C2825211E1B18151210BC
:107260000D0B0907060403020100000000000102E3
:1072700003040607090B0D101215181B1E212528E3
:107280002C2F33363A3D4145484C4F5256595C5F9E
:107290006265676A6C6E7072747677787A7B7C7CD4
:1072A0007D7E7E7F7F7F7F7F7F7F7F8080838689DB
:1072B0008C8F9295989B9EA2A5A7AAADB0B3B6B9A4
:1072C000BCBEC1C4C6C9CBCED0D3D5D7DADCDEE0D4
:1072D000E2E4E6E8EAEBEDEEF0F1F3F4F5F6F8F9C6
:1072E000FAFAFBFCFDFDFEFEFEFFFFFFFFFFFFFFC6
:1072F000FEFEFEFDFDFCFBFAFAF9F8F6F5F4F3F1FB
:10730000F0EEEDEBEAE8E6E4E2E0DEDCDAD7D5D356
:10731000D0CECBC9C6C4C1BEBCB9B6B3B0ADAAA7A6
:10732000A5A29E9B9895928F8C898683807C797686
:1073300073706D6A6764615D5A5855524F4C494687
:1073400043413E3B393634312F2C2A282523211F37
:107350001D1B1917151412110F0E0C0B0A09070625
:107360000505040302020101010000000000000005
:107370000101010202030405050607090A0B0C0EB0
:107380000F1112141517191B1D1F212325282A2C34
:107390002F313436393B3E414346494C4F525558C4
:1073A0005A5D6164676A6D707376797C8080858AC6
:1073B0008F94999EA3A7ACB1B6BABFC3C7CBCFD3A6
:1073C000D7DADEE1E4E7EAEDEFF1F4F6F7F9FAFBFC
:1073D000FDFDFEFFFFFFFFFFFEFEFDFCFBFAF9F7E0
:1073E000F5F4F2F0EDEBE9E6E4E1DEDCD9D6D3D05A
:1073F000CDCAC6C3C0BDBAB7B4B0ADAAA7A4A29F38
:107400009C999794928F8D8B8987858382807F7DCD
:107410007C7B7A79787877777676767676767676F4
:107420007777777879797A7B7B7C7D7E7F808081A6
:1074300082838484858686878888888989898989E2
:10744000898989888887878685848382807F7D7CF7
:107450007A78767472706D6B686663605D5B5855A0
:10746000524F4B4845423F3C3935322F2C29262379
:10747000211E1B191614120F0D0B0A080605040312
:1074800002010100000000000102020405060809D3
:107490000B0E101215181B1E2125282C3034383CD9
:1074A0004045494E53585C61666B70757A808087A1
:1074B0008F979EA6ADB4BBC2C8CED4D9DFE4E8ECAA
:1074C000F0F3F6F9FBFCFEFFFFFFFFFEFDFBFAF811
:1074D000F5F2F0ECE9E6E2DEDAD6D2CECAC6C2BEFA
:1074E000BBB7B4B0ADABA8A6A4A2A19F9F9E9E9E21
:1074F0009F9FA1A2A4A6A8ABADB0B4B7BBBEC2C6A5
:10750000CACED2D6DADEE2E6E9ECF0F2F5F8FAFB22
:10751000FDFEFFFFFFFFFEFCFBF9F6F3F0ECE8E4F5
:10752000DFD9D4CEC8C2BBB4ADA69E978F87807872
:1075300070686159524B443D37312B26201B17137D
:107540000F0C0906040301000000000102040507F6
:107550000A0D0F1316191D2125292D3135393D41ED
:1075600044484B4F525457595B5D5E6060616161A6
:1075700060605E5D5B595754524F4B4844413D3902
:1075800035312D2925211D1916130F0D0A07050464
:1075900002010000000001030406090C0F13171B71
:1075A00020262B31373D444B5259616870788080DA
:1075B000889098A0A7AEB4BABFC3C7CACCCDCDCD72
:1075C000CCCAC7C4C1BDB8B3AFAAA5A09B97938FBF
:1075D0008C8A88878787888A8D9094999EA4AAB17F
:1075E000B7BEC5CCD3DAE0E6ECF1F5F8FBFDFFFF62
:1075F000FFFDFBF8F5F1ECE6E0DAD3CCC5BEB7B1A0
:10760000AAA49E9994908D8A88878787888A8C8F70
:1076100093979BA0A5AAAFB3B8BDC1C4C7CACCCD30
:10762000CDCDCCCAC7C3BFBAB4AEA7A0989088804E
:10763000776F675F58514B45403C383533323232B3
:107640003335383B3E42474C50555A5F64686C7046
:107650007375777878787775726F6B66615B554E66
:1076600048413A332C251F19130E0A070402000063
:10767000000204070A0E13191F252C333A41484E05
:10768000555B61666B6F7275777878787775737014
:107690006C68645F5A55504C47423E3B3835333234
:1076A00032323335383C40454B51585F676F7780F5
:1076B0008084898E92979CA1A5AAAFB3B8BDC2C69B
:1076C000CBD0D4D9DEE3E7ECF1F6FAFFFAF6F1EC31
:1076D000E7E3DED9D4D0CBC6C2BDB8B3AFAAA5A16B
:1076E0009C97928E8984807B76716D68635E5A5513
:1076F00050555A5E63686D71767B8084898E92974F
:107700009CA1A5AAAFB3B8BDC2C6CBD0D4D9DEE385
:10771000E7ECF1F6FAFFFAF6F1ECE7E3DED9D4D0C4
:10772000CBC6C2BDB8B3AFAAA5A19C97928E8984DF
:10773000807B76716D68635E5A55504C47423D3987
:10774000342F2A26211C18130E09050005090E13D3
:10775000181C21262A2F34393D42474C50555A5E79
:1077600063686D71767B8084898E92979CA1A5AAAF
:10777000AFAAA5A19C97928E8984807B76716D6853
:10778000635E5A55504C47423D39342F2A26211CFE
:1077900018130E09050005090E13181C21262A2F9F
:1077A00034393D42474C50555A5E63686D71767B63
:1077B00080807C7874706C6864605C5854504C486D
:1077C00044403C3834302C2824201C1814100C0859
:1077D000040004080C1014181C2024282C30343801
:1077E0003C4044484C5054585C6064686C707478F9
:1077F0007C8083878B8F93979B9FA3A7ABAFB3B7F7
:10780000BBBFC3C7CBCFD3D7DBDFE3E7EBEFF3F7E8
:10781000FBFFFBF7F3EFEBE7E3DFDBD7D3CFCBC720
:10782000C3BFBBB7B3AFABA7A39F9B97938F8B8708
:10783000838083878B8F93979B9FA3A7ABAFB3B7AF
:10784000BBBFC3C7CBCFD3D7DBDFE3E7EBEFF3F7A8
:10785000FBFFFBF7F3EFEBE7E3DFDBD7D3CFCBC7E0
:10786000C3BFBBB7B3AFABA7A39F9B97938F8B87C8
:1078700083807C7874706C6864605C5854504C48A9
:1078800044403C3834302C2824201C1814100C0898
:10789000040004080C1014181C2024282C30343840
:1078A0003C4044484C5054585C6064686C70747838
:1078B0007C803F3C393633302D2A2724211E1B186B
:1078C00015120F0C090603000104070A0D10131608
:1078D000191C1F2225282B2E3134373A3D404346B0
:1078E000494C4F5255585B5E6164676A6D707376A0
:1078F000797C808386898C8F9295989B9EA1A4A782
:10790000AAADB0B3B6B9BCBFC2C5C8CBCED1D4D76F
:10791000DADDE0E3E6E9ECEFF2F5F8FBFEFFFCF977
:10792000F6F3F0EDEAE7E4E1DEDBD8D5D2CFCCC95F
:10793000C6C3C0C3C6C9CCCFD2D5D8DBDEE1E4E72D
:10794000EAEDF0F3F6F9FCFFFEFBF8F5F2EFECE9F7
:10795000E6E3E0DDDAD7D4D1CECBC8C5C2BFBCB92F
:10796000B6B3B0ADAAA7A4A19E9B9895928F8C891F
:107970008683807C797673706D6A6764615E5B581C
:1079800055524F4C494643403D3A3734312E2B280F
:1079900025221F1C191613100D0A070401000306E7
:1079A000090C0F1215181B1E2124272A2D303336DF
:1079B000393C3F00000101020202030304040505F3
:1079C00006060707080809090A0A0B0C0C0D0E0E1B
:1079D0000F101011121313141516171718191A1B5C
:1079E0001C1D1E1F2021222325262728292B2C2D54
:1079F0002F303233343638393B3C3E4042434547E2
:107A0000494B4D4F515356585A5D5F616466696CDE
:107A10006E7174777A7D8083878A8D9194989C9F0C
:107A2000A3A7ABAFB4B8BCC1C5CACFD4D9DEE3E815
:107A3000EEF3F9FFF9F3EEE8E3DED9D4CFCAC5C11E
:107A4000BCB8B4AFABA7A39F9C9894918D8A878351
:107A5000807D7A7774716E6C696664615F5D5A5877
:107A60005653514F4D4B4947454342403E3C3B39AD
:107A70003836343332302F2D2C2B29282726252336
:107A80002221201F1E1D1C1B1A191817171615144A
:107A90001313121110100F0E0E0D0C0C0B0A0A0905
:107AA0000908080707060605050404030302020285
:107AB00001010000CD861EA317546D8DA0B2CA210E
:107AC0005733B408E867C27949C018694863DE14BF
:107AD0008E8C54F849822532D701C8D5EFF8D410DE
:107AE000675F81FAD130B2AEFF7BBACB4229B2E6F2
:107AF000EA4FF4B905B994F4BD32F2DB72D2FF90CB
:107B0000966CE57193A84D05D651602ED42FF7B22F
:107B10009A7EB542A69FD55BF410DD8DE3BF357C20
:107B200097DECCF42C1BA05FA6AF79AAF32EB3721C
:107B30008617ABE954F72C0E0FC790227BA8EE8A6C
:107B40004837BD7F2AF55B66AFEE62595F2B2DA4E7
:107B5000F91221D1C7FA35EF1FB2E98566C5D2F314
:107B60001131C8AC450097D175A884F4D266E444BD
:107B70008A40877CFA834D388E62DA0F16805DBEAC
:107B80001AF5AE0A15A2C6494C4547138A01BDD75E
:107B90001B44298FF430EF8342C65752D439253D18
:107BA0002E4459D150D609949797A6E4330A56909B
:107BB000BAD1D41CCD808386898C8F9295989B9E58
:107BC000A2A5A7AAADB0B3B6B9BCBEC1C4C6C9CB45
:107BD000CED0D3D5D7DADCDEE0E2E4E6E8EAEBEDBE
:107BE000EEF0F1F3F4F5F6F8F9FAFAFBFCFDFDFE20
:107BF000FEFEFFFFFFFFFFFFFFFEFEFEFDFDFCFBA5
:107C0000FAFAF9F8F6F5F4F3F1F0EEEDEBEAE8E65E
:107C1000E4E2E0DEDCDAD7D5D3D0CECBC9C6C4C12E
:107C2000BEBCB9B6B3B0ADAAA7A5A29E9B989592CB
:107C30008F8C898683807C797673706D6A676461C6
:107C40005D5A5855524F4C494643413E3B393634B4
:107C5000312F2C2A282523211F1D1B19171514121B
:107C6000110F0E0C0B0A0907060505040302020199
:107C700001010000000000000001010102020304F4
:107C800005050607090A0B0C0E0F1112141517191A
:107C90001B1D1F212325282A2C2F313436393B3E2A
:107CA000414346494C4F5255585A5D6164676A6D6D
:107CB000707376797C8000000000FF00FE01FC02FA
:107CC000FA03F604F205ED06E807E108DA09D20A3C
:107CD000CA0BC10CB70DAC0EA00F941087117A120D
:107CE0006B135C144D153C162B1719180619F31954
:107CF000DF1ACA1BB41C9E1D871E701F57203E2111
:107D000025220A23EF23D324B7259A267C275D2832
:107D10003E291E2AFD2ADC2BBA2C972D742E502FBB
:107D20002B300631E031B93292336A34413517369F
:107D3000ED36C23797386B393E3A113BE33BB43CE2
:107D4000853D553E243FF33FC1408E415B42274372
:107D5000F243BD44874551461A47E247AA48714954
:107D6000374AFD4AC24B864C4A4D0D4ED04E924F7B
:107D700053501451D451935252531054CE548B55E6
:107D800047560357BE5779583359EC59A55A5D5B8E
:107D9000155CCC5C825D385EED5EA15F556009616B
:107DA000BB616E621F63D06381643065E0658E667F
:107DB0003C67EA6797684369EF699A6A456BEF6BBE
:107DC000986C416DEA6D926E396FDF6F86702B7122
:107DD000D07174721873BC735E740175A2754376AA
:107DE000E47684772378C2786179FE799C7A387B4F
:107DF000D57B707C0B7DA67D407ED97E727F0B800B
:107E0000A3803A81D1816782FD8292832784BB84DB
:107E10004F85E2857586078799872A88BB884B89B5
:107E2000DA89698AF88A868B148CA18C2D8DB98D9C
:107E3000458ED08E5A8FE48F6E90F7908091089285
:107E40008F9216939D932394A9942E95B29537966D
:107E5000BA963E97C0974398C4984699C699479A50
:107E6000C79A469BC59B449CC29C3F9DBC9D399E26
:107E7000B59E319FAC9F27A0A1A01BA194A10DA2EC
:107E800085A2FDA275A3ECA363A4D9A44FA5C4A5A4
:107E900039A6ADA621A795A708A87BA8EDA85FA93C
:107EA000D0A941AAB2AA22AB91AB00AC6FACDEACB8
:107EB0004BADB9AD26AE93AEFFAE6BAFD6AF41B012
:107EC000ABB016B17FB1E9B151B2BAB222B38AB345
:107ED000F1B358B4BEB424B58AB5EFB554B6B8B64C
:107EE0001CB77FB7E3B745B8A8B80AB96BB9CDB925
:107EF0002DBA8EBAEEBA4DBBADBB0CBC6ABCC8BCC9
:107F000026BD83BDE0BD3DBE99BEF5BE50BFABBF33
:107F100006C060C0BAC014C16DC1C5C11EC276C260
:107F2000CEC225C37CC3D3C329C47FC4D4C429C54E
:107F30007EC5D3C527C67AC6CEC621C773C7C6C7F6
:107F400018C869C8BAC80BC95CC9ACC9FCC94CCA55
:107F50009BCAEACA38CB86CBD4CB21CC6FCCBBCC66
:107F600008CD54CDA0CDEBCD36CE81CECCCE16CF24
:107F700060CFA9CFF2CF3BD084D0CCD014D15BD18D
:107F8000A2D1E9D130D276D2BCD202D347D38CD39E
:107F9000D1D315D459D49DD4E1D424D567D5A9D54E
:107FA000EBD52DD66FD6B0D6F1D632D772D7B2D7A1
:107FB000F2D732D871D8B0D8EFD82DD96BD9A9D98A
:107FC000E6D924DA60DA9DDAD9DA15DB51DB8DDB0C
:107FD000C8DB03DC3DDC78DCB2DCECDC25DD5EDD1F
:107FE00097DDD0DD08DE40DE78DEB0DEE7DE1EDFC6
:107FF00055DF8CDFC2DFF8DF2EE063E098E0CDE0F4
:1080000002E136E16AE19EE1D2E105E238E26BE2AB
:108010009EE2D0E202E334E366E397E3C8E3F9E3E8
:108020002AE45AE48AE4BAE4E9E419E548E577E5A4
:10803000A5E5D4E502E630E65EE68BE6B8E6E5E6E1
:1080400012E73EE76BE797E7C3E7EEE719E845E895
:108050006FE89AE8C5E8EFE819E943E96CE995E9C2
:10806000BEE9E7E910EA38EA61EA89EAB0EAD8EA63
:10807000FFEA26EB4DEB74EB9BEBC1EBE7EB0DEC72
:1080800032EC58EC7DECA2ECC7ECEBEC10ED34EDEF
:1080900058ED7CED9FEDC3EDE6ED09EE2CEE4EEED6
:1080A00071EE93EEB5EED7EEF9EE1AEF3BEF5CEF23
:1080B0007DEF9EEFBEEFDEEFFFEF1EF03EF05EF0D5
:1080C0007DF09CF0BBF0DAF0F9F017F135F153F1E7
:1080D00071F18FF1ADF1CAF1E7F104F221F23EF254
:1080E0005AF276F292F2AEF2CAF2E6F201F31DF320
:1080F00038F353F36DF388F3A2F3BDF3D7F3F1F341
:108100000BF424F43EF457F470F489F4A2F4BBF4B5
:10811000D3F4ECF404F51CF534F54BF563F57AF57E
:1081200092F5A9F5C0F5D7F5EDF504F61AF631F696
:1081300047F65DF672F688F69EF6B3F6C8F6DDF6FB
:10814000F2F607F71CF730F744F759F76DF781F7A8
:1081500095F7A8F7BCF7CFF7E3F7F6F709F81CF89F
:108160002EF841F854F866F878F88AF89CF8AEF8DA
:10817000C0F8D1F8E3F8F4F805F917F928F938F957
:1081800049F95AF96AF97BF98BF99BF9ABF9BBF913
:10819000CBF9DAF9EAF9F9F909FA18FA27FA36FA0D
:1081A00045FA54FA62FA71FA7FFA8DFA9CFAAAFA41
:1081B000B8FAC6FAD3FAE1FAEFFAFCFA09FB17FBB0
:1081C00024FB31FB3EFB4AFB57FB64FB70FB7DFB52
:1081D00089FB95FBA1FBADFBB9FBC5FBD1FBDDFB2F
:1081E000E8FBF4FBFFFB0AFC15FC20FC2BFC36FC37
:1081F00041FC4CFC56FC61FC6BFC76FC80FC8AFC70
:1082000094FC9EFCA8FCB2FCBCFCC6FCCFFCD9FCD8
:10821000E2FCEBFCF5FCFEFC07FD10FD19FD22FD68
:108220002AFD33FD3CFD44FD4DFD55FD5DFD66FD24
:108230006EFD76FD7EFD86FD8EFD95FD9DFDA5FD09
:10824000ACFDB4FDBBFDC2FDCAFDD1FDD8FDDFFD17
:10825000E6FDEDFDF4FDFBFD01FE08FE0FFE15FE43
:108260001CFE22FE28FE2FFE35FE3BFE41FE47FE91
:108270004DFE53FE59FE5FFE64FE6AFE70FE75FE03
:108280007BFE80FE86FE8BFE90FE95FE9AFEA0FE93
:10829000A5FEAAFEAFFEB3FEB8FEBDFEC2FEC6FE40
:1082A000CBFED0FED4FED9FEDDFEE1FEE6FEEAFE08
:1082B000EEFEF2FEF6FEFAFEFFFE02FF06FF0AFFEA
:1082C0000EFF12FF16FF19FF1DFF21FF24FF28FFDD
:1082D0002BFF2FFF32FF35FF39FF3CFF3FFF42FFEF
:1082E00046FF49FF4CFF4FFF52FF55FF58FF5BFF12
:1082F0005DFF60FF63FF66FF68FF6BFF6EFF70FF4F
:1083000073FF75FF78FF7AFF7DFF7FFF81FF84FF9A
:1083100086FF88FF8BFF8DFF8FFF91FF93FF95FFF7
:1083200097FF99FF9BFF9DFF9FFFA1FFA3FFA5FF65
:10833000A7FFA8FFAAFFACFFAEFFAFFFB1FFB2FFE0
:10834000B4FFB6FFB7FFB9FFBAFFBCFFBDFFBFFF69
:10835000C0FFC1FFC3FFC4FFC5FFC7FFC8FFC9FF00
:10836000CAFFCCFFCDFFCEFFCFFFD0FFD1FFD2FFA2
:10837000D3FFD4FFD5FFD6FFD7FFD8FFD9FFDAFF51
:10838000DBFFDCFFDDFFDEFFDFFFE0FFE0FFE1FF03
:10839000E2FFE3FFE3FFE4FFE5FFE6FFE6FFE7FFC1
:1083A000E8FFE8FFE9FFEAFFEAFFEBFFEBFFECFF86
:1083B000ECFFEDFFEDFFEEFFEFFFEFFFEFFFF0FF54
:1083C000F0FFF1FFF1FFF2FFF2FFF3FFF3FFF3FF26
:1083D000F4FFF4FFF4FFF5FFF5FFF5FFF6FFF6FFFE
:1083E000F6FFF7FFF7FFF7FFF8FFF8FFF8FFF8FFDA
:1083F000F9FFF9FFF9FFF9FFF9FFFAFFFAFFFAFFBA
:10840000FAFFFAFFFBFFFBFFFBFFFBFFFBFFFBFF9E
:10841000FCFFFCFFFCFFFCFFFCFFFCFFFCFFFCFF84
:10842000FDFFFDFFFDFFFDFFFDFFFDFFFDFFFDFF6C
:10843000FDFFFDFFFDFFFDFFFEFFFEFFFEFFFEFF58
:10844000FEFFFEFFFEFFFEFFFEFFFEFFFEFFFEFF44
:10845000FEFFFEFFFEFFFEFFFEFFFEFFFEFFFEFF34
:10846000FEFFFEFFFEFFFEFFFEFFFEFFFEFFFEFF24
:10847000FEFFFEFFFEFFFEFFFEFFFEFFFEFFFEFF14
:10848000FEFFFEFFFEFFFEFFFEFFFEFFFEFFFEFF04
:10849000FEFFFEFFFEFFFEFFFEFFFEFFFEFFFEFFF4
:1084A000FEFFFEFFFEFFFEFFFEFFFEFFFEFFFEFFE4
:1084B000FEFFFEFFFEFFFEFFFFFF0000630900005E
:1084C0006E09000078090000830900008E09000091
:1084D00098090000A3090000AE090000B9090000D6
:1084E000C4090000CF090000DA090000E509000016
:1084F000F0090000FB090000060A0000120A000053
:108500001D0A0000280A0000340A00003F0A00008B
:108510004B0A0000560A0000620A00006E0A0000C2
:108520007A0A0000850A0000910A00009D0A0000F6
:10853000A90A0000B50A0000C10A0000CD0A000027
:10854000D90A0000E60A0000F20A0000FE0A000054
:108550000A0B0000170B0000230B0000300B00007B
:108560003D0B0000490B0000560B0000630B0000A0
:108570006F0B00007C0B0000890B0000960B0000C5
:10858000A30B0000B00B0000BE0B0000CB0B0000E3
:10859000D80B0000E50B0000F30B0000000C0000FE
:1085A0000E0C00001B0C0000290C0000370C000012
:1085B000440C0000520C0000600C00006E0C000027
:1085C0007C0C00008A0C0000980C0000A60C000037
:1085D000B40C0000C30C0000D10C0000E00C000043
:1085E000EE0C0000FD0C00000B0D00001A0D000049
:1085F000290D0000370D0000460D0000550D00004C
:10860000640D0000730D0000820D0000920D00004B
:10861000A10D0000B00D0000C00D0000CF0D000046
:10862000DF0D0000EE0D0000FE0D00000E0E00003C
:108630001E0E00002D0E00003D0E00004D0E00002D
:108640005E0E00006E0E00007E0E00008E0E00001A
:108650009F0E0000AF0E0000C00E0000D00E000004
:10866000E10E0000F20E0000020F0000130F0000E8
:10867000240F0000350F0000470F0000580F0000C6
:10868000690F00007A0F00008C0F00009D0F0000A2
:10869000AF0F0000C00F0000D20F0000E40F000079
:1086A000F60F0000081000001A1000002C10000047
:1086B0003E10000051100000631000007510000013
:1086C000881000009A100000AD100000C0100000DB
:1086D000D3100000E6100000F91000000C1100009B
:1086E0001F11000032110000461100005911000056
:1086F0006D1100008011000094110000A81100000D
:10870000BC110000D0110000E4110000F8110000BD
:108710000C12000020120000351200004912000067
:108720005E12000072120000871200009C1200000E
:10873000B1120000C6120000150016001700180044
:10874000180019001A001B001C001D001E001F004D
:1087500020002100220023002400250026002700FD
:1087600029002A002B002D002E003000310033009C
:108770003400360038003A003B003D003F00410025
:108780004400460048004A004D004F00520054008B
:1087900057005A005D0060006300660069006C00CD
:1087A0007000730077007B007F00830087008B00E0
:1087B0009000950099009E00A300A800AE00B300B1
:1087C000B900BF00C500CB00D200D900E000E7002F
:1087D000EE00F600FE0006010E0117011F0129013F
:1087E00032013C01460150015B01660172017D01CD
:1087F0008A019601A301B001BE01CD01DB01EA01AE
:10880000FA010A021B022C023E02500263027602A7
:108810008B029F02B502CB02E202F90211032A0386
:1088200044035F037A039703B403D203F2031204F1
:108830003304550479049D04C304EA0412053B057E
:1088400066059205BF05EE051F0651068406B906AA
:10885000F00629076307A007DE071E086008A408C2
:10886000EB0834097F09CC091C0A6F0AC40A1C0BE7
:10887000760BD40B350C980CFF0C690DD60D470EFA
:10888000BC0E340FB00F3010B4103C11C9115A1285
:10889000F0128A132A14CE1478152716DC169717AF
:1088A00057181E19EB19BE1A981B7A1C621D521E0E
:1088B000491F482050215F2278239924C425F82697
:1088C00036287E29D12A2E2C962D0A2F8A30163250
:1088D000AF3354350837C938983A763C633E604028
:1088E0006D428B44BB46FC484F4BB64D3050BE5298
:1088F00061551A58E85ACE5DCB60E1631067596A3A
:10890000BD6D3C71D8749178697C60807784B08843
:108910000B8D8A912D96F79AE79F00A542AAAFAFDB
:1089200048B50FBB05C12CC785CD12D4D4DACEE132
:1089300000E96DF016F8FFFF0000000001000400E0
:1089400007000B00110017001E0026002F00390041
:1089500044004F005C006A00780088009900AA007B
:10896000BD00D000E400FA00100127013F015801CA
:1089700072018D01A901C601E30102022202420235
:1089800064028702AA02CE02F4021A0341036903B9
:108990009303BD03E803140440046E049D04CD0456
:1089A000FE042F0562059505CA05FF0535066D060F
:1089B000A506DE06180753078F07CC070A084908E3
:1089C0008908CA080B094E099209D6091C0A620ACD
:1089D000AA0AF20A3B0B850BD00B1D0C6A0CB80CD3
:1089E000070D560DA70DF90D4C0E9F0EF40E4A0FF4
:1089F000A00FF70F5010A91003115F11BB1118122F
:108A00007612D51235139613F8135A14BE14231583
:108A10008815EF155716BF1628179317FE176A18F3
:108A2000D7184619B519251A961A081B7A1BEE1B7A
:108A3000631CD91C4F1DC71D3F1EB91E331FAF1F1E
:108A40002B20A8202621A6212622A7222923AC23D9
:108A50002F24B4243A25C1254826D1265A27E527B4
:108A60007028FD288A29182AA82A382BC92B5B2CA4
:108A7000EE2C822D172EAD2E432FDB2F74300D31AF
:108A8000A8314332E0327D331C34BB345B35FC35D6
:108A90009E364137E5378A383039D7397F3A283B17
:108AA000D13B7C3C283DD43D823E303FDF3F90406F
:108AB0004141F341A6425A430F44C5447C453446E4
:108AC000ED46A74761481D49D949974A554B154C72
:108AD000D54C974D594E1C4FE04FA5506B5132521B
:108AE000FA52C3538D5458552356F056BE578C58DE
:108AF0005C592C5AFE5AD05BA35C775D4D5E235FB8
:108B0000FA5FD260AB6185625F633B641865F665AE
:108B1000D466B46794687669586A3B6B206C056DBF
:108B2000EB6DD26EBA6FA3708D71787264735174ED
:108B30003F752D761D770E78FF78F179E57AD97B30
:108B4000CF7CC57DBC7EB47FAD80A781A2829E8391
:108B50009B8499859886978798889A899C8AA08B08
:108B6000A48CA98DB08EB78FBF90C891D292DD939F
:108B7000E994F695049713982399349A459B589C49
:108B80006B9D809E959FACA0C3A1DBA2F5A30FA512
:108B90002AA646A763A881A9A0AAC0ABE0AC02AEF2
:108BA00025AF49B06DB193B2B9B3E0B409B632B7ED
:108BB0005CB888B9B4BAE1BB0FBD3EBE6EBF9FC002
:108BC000D0C103C337C46BC5A1C6D8C70FC947CA34
:108BD00081CBBBCCF6CD33CF70D0AED1EDD22DD47E
:108BE0006ED5B0D6F2D736D97BDAC1DB07DD4FDEE2
:108BF00097DFE1E02BE276E3C3E410E65EE7ADE861
:108C0000FDE94EEBA0ECF3ED47EF9CF0F1F148F3FA
:108C1000A0F4F8F552F7ACF808FA64FBC1FC1FFEAB
:108C20007FFF8FFFE0FE32FE85FDD9FC2EFC83FB2B
:108C3000DAFA32FA8AF9E4F83FF89AF7F6F654F6D7
:108C4000B2F511F572F4D3F335F398F2FCF161F15A
:108C5000C7F02DF095EFFEEE68EED2ED3EEDAAECFA
:108C600018EC86EBF5EA66EAD7E949E9BCE830E8B2
:108C7000A5E71BE792E60AE683E5FCE477E4F3E385
:108C80006FE3EDE26BE2EBE16BE1ECE06EE0F2DF73
:108C900076DFFBDE81DE08DE90DD18DDA2DC2DDC78
:108CA000B9DB45DBD3DA61DAF1D981D913D9A5D89B
:108CB00038D8CCD762D7F8D68FD627D6C0D559D5D5
:108CC000F4D490D42DD4CAD369D308D3A9D24AD22C
:108CD000EDD190D134D1DAD080D027D0CFCF78CF9A
:108CE00022CFCDCE78CE25CED3CD82CD31CDE2CC24
:108CF00093CC46CCF9CBADCB63CB19CBD0CA88CAC9
:108D000041CAFBC9B6C972C92FC9EDC8ABC86BC887
:108D10002CC8EDC7B0C773C738C7FDC6C3C68BC65E
:108D200053C61CC6E6C5B1C57DC54AC518C5E7C44E
:108D3000B6C487C459C42BC4FFC3D3C3A9C37FC35C
:108D400056C32FC308C3E2C2BDC299C276C254C281
:108D500033C213C2F3C1D5C1B8C19BC180C165C1C3
:108D60004CC133C11CC105C1EFC0DAC0C6C0B3C01D
:108D7000A1C090C080C071C063C055C049C03EC092
:108D800033C02AC021C01AC013C00DC009C005C01D
:108D900002C000C0FFBFFFBF00C002C004C008C0C7
:108DA0000DC012C019C021C029C032C03DC048C08A
:108DB00054C062C070C07FC08FC0A0C0B2C0C5C068
:108DC000D8C0EDC003C119C131C14AC163C17DC161
:108DD00099C1B5C1D2C1F1C110C230C251C273C272
:108DE00096C2BAC2DFC204C32BC353C37BC3A5C39D
:108DF000CFC3FBC327C454C483C4B2C4E2C413C5E5
:108E000045C578C5ACC5E1C517C64EC685C6BEC644
:108E1000F8C632C76EC7AAC7E8C726C865C8A6C8BD
:108E2000E7C829C96CC9B0C9F5C93BCA82CACACA50
:108E300012CB5CCBA7CBF2CB3FCC8CCCDBCC2ACDFE
:108E40007ACDCCCD1ECE71CEC5CE1ACF70CFC7CFC6
:108E50001FD078D0D1D02CD188D1E4D142D2A0D2A9
:108E600000D360D3C1D324D487D4EBD450D5B6D5A6
:108E70001DD685D6EED658D7C3D72ED89BD809D9BC
:108E800077D9E7D957DAC9DA3BDBAEDB22DC98DCED
:108E90000EDD85DDFDDD76DEF0DE6ADFE6DF63E038
:108EA000E1E05FE1DFE15FE2E1E263E3E7E36BE49E
:108EB000F0E476E5FDE586E60FE799E723E8AFE81D
:108EC0003CE9CAE959EAE8EA79EB0AEC9DEC30EDB5
:108ED000C5ED5AEEF0EE87EF20F0B9F053F1EEF168
:108EE0008AF226F3C4F363F403F5A3F545F6E8F636
:108EF0008BF730F8D5F87BF923FACBFA74FB1EFC1C
:108F0000C9FC75FD22FED0FE7FFFE7FF8FFF39FF12
:108F1000E4FE8FFE3CFEE9FD98FD47FDF7FCA8FC52
:108F20005BFC0EFCC2FB77FB2DFBE4FA9CFA54FAC7
:108F30000EFAC9F984F941F9FFF8BDF87CF83DF85B
:108F4000FEF7C0F784F748F70DF7D3F69AF662F606
:108F50002BF6F4F5BFF58BF558F525F5F4F4C3F4CD
:108F600094F465F437F40BF4DFF3B4F38AF361F3AC
:108F700039F312F3ECF2C7F2A3F27FF25DF23CF2A6
:108F80001BF2FCF1DDF1BFF1A3F187F16CF152F1BD
:108F90003AF122F10BF1F5F0E0F0CBF0B8F0A6F0E9
:108FA00095F084F075F066F059F04CF041F036F031
:108FB0002CF023F01BF015F00FF00AF005F002F092
:108FC00000F0FFEFFFEFFFEF01F003F007F00BF011
:108FD00011F017F01EF026F030F03AF045F051F0A5
:108FE0005EF06CF07AF08AF09BF0ACF0BFF0D3F05A
:108FF000E7F0FDF013F12AF143F15CF176F191F124
:10900000ADF1CAF1E8F107F227F248F269F28CF209
:10901000B0F2D4F2FAF220F348F370F399F3C3F309
:10902000EFF31BF448F476F4A5F4D5F406F537F520
:109030006AF59EF5D2F508F63FF676F6AEF6E8F656
:1090400022F75DF79AF7D7F715F854F894F8D5F8A2
:1090500017F959F99DF9E2F928FA6EFAB6FAFEFA0B
:1090600048FB92FBDDFB2AFC77FCC5FC14FD64FD8C
:10907000B5FD07FE5AFEAEFE03FF58FFAFFFFBFF34
:10908000CFFFA5FF7BFF52FF2BFF04FFDEFEB9FEE3
:1090900096FE73FE51FE30FE10FEF0FDD2FDB5FDD2
:1090A00099FD7DFD63FD49FD31FD19FD03FDEDFCDD
:1090B000D8FCC4FCB1FC9FFC8FFC7EFC6FFC61FC07
:1090C00054FC48FC3DFC32FC29FC20FC19FC12FC41
:1090D0000DFC08FC04FC01FC00FCFFFBFFFB00FC9A
:1090E00002FC04FC08FC0DFC13FC19FC21FC2AFC0E
:1090F00033FC3EFC49FC55FC63FC71FC80FC90FC9D
:10910000A1FCB3FCC6FCDAFCEFFC05FD1BFD33FD46
:109110004CFD65FD80FD9BFDB8FDD5FDF3FD12FE08
:1091200033FE54FE76FE99FEBDFEE2FE08FF2EFFE2
:1091300056FF7FFFA8FFD3FFFFFF000000000000E5
:10914000000000000000000000000000000000001F
:10915000000000000000000000000000000000000F
:1091600000000000000000000000000000000000FF
:1091700000000000000000000000000000000000EF
:1091800000000000000000000000000000000000DF
:1091900000000000000000000000000000000000CF
:1091A00000000000000000000000000000000000BF
:1091B00000000000000000000000000000000100AE
:1091C0000100010001000100010001000100010097
:1091D0000100010001000200020002000200020082
:1091E000020002000200030003000300030003006A
:1091F000030004000400040004000400050005004E
:109200000500050005000600060006000600070030
:10921000070007000800080008000900090009000D
:109220000A000A000A000B000B000B000C000C00E7
:109230000D000D000E000E000F000F000F001000BB
:10924000110011001200120013001300140014008A
:1092500015001600160017001800180019001A0053
:109260001B001B001C001D001E001E001F00200014
:1092700021002200230024002500260027002800CA
:1092800029002A002B002C002D002E002F0030007A
:1092900031003200340035003600370039003A0022
:1092A0003B003D003E003F004100420044004500BD
:1092B000470048004A004C004D004F00500052004B
:1092C00054005600570059005B005D005F006100CC
:1092D00063006500670069006B006D006F0071003E
:1092E0007300760078007A007D007F0081008400A2
:1092F000860089008B008E009000930096009800F5
:109300009B009E00A100A300A600A900AC00AF0036
:10931000B200B500B800BC00BF00C200C500C90063
:10932000CC00CF00D300D600DA00DD00E100E5007C
:10933000E800EC00F000F400F800FC00FF0004017D
:1093400008010C011001140118011D012101250162
:109350002A012E01330138013C01410146014B0134
:109360004F01540159015E01640169016E017301ED
:1093700078017E01830189018E0194019A019F0188
:10938000A501AB01B101B701BD01C301C901CF0105
:10939000D601DC01E201E901EF01F601FD01030262
:1093A0000A02110218021F0226022D0234023C0298
:1093B00043024A02520259026102690270027802B3
:1093C0008002880290029802A102A902B102BA02A8
:1093D000C202CB02D402DC02E502EE02F702000375
:1093E000090313031C0325032F03380342034C0313
:1093F000560360036A0374037E03880393039D038B
:10940000A803B203BD03C803D303DE03E903F403D7
:10941000FF030A04160421042D04390445045104F1
:109420005D046904750481048E049A04A704B404DD
:10943000C004CD04DA04E704F50402050F051D0598
:109440002B05380546055405620571057F058D0518
:109450009C05AA05B905C805D705E605F505050665
:109460001406240633064306530663067306830672
:109470009406A406B506C606D606E706F9060A0748
:109480001B072D073E0750076207740786079807DA
:10949000AA07BD07D007E207F50708081B082F0831
:1094A0004208560869087D089108A508BA08CE0840
:1094B000E208F7080C09210936094B096009760909
:1094C0008C09A109B709CD09E409FA09110A270A8B
:1094D0003E0A550A6C0A840A9B0AB30ACA0AE20ABF
:1094E000FA0A120B2B0B430B5C0B750B8E0BA70BA5
:1094F000C00BDA0BF30B0D0C270C410C5C0C760C3B
:10950000910CAB0CC60CE10CFD0C180D340D500D7C
:109510006C0D880DA40DC00DDD0DFA0D170E340E67
:10952000510E6F0E8D0EAB0EC90EE70E050F240FF8
:10953000430F620F810FA00FC00FE00FFF0F20102D
:10954000401060108110A210C310E4100511271103
:1095500049116B118D11B011D211F51118123B1276
:109560005F128212A612CA12EE12131337135C1383
:109570008113A613CC13F11317143D1463148A142A
:10958000B114D814FF1426154E1575159D15C61562
:10959000EE151716401669169216BB16E5160F172C
:1095A000391764178F17B917E51710183B18671884
:1095B0009318C018EC18191946197319A019CE1967
:1095C000FC192A1A591A871AB61AE51A151B441BD0
:1095D000741BA41BD41B051C361C671C981CCA1CBE
:1095E000FC1C2E1D601D931DC61DF91D2C1E601E2A
:1095F000941EC81EFC1E311F661F9B1FD01F062015
:109600003C207220A920E02017214E218621BE2176
:10961000F6212E226722A022D92212234C23862350
:10962000C123FB2336247124AD24E924252561259B
:109630009E25DA25182655269326D1260F274E2754
:109640008D27CC270C284C288C28CC280D294E2976
:109650008F29D129132A552A972ADA2A1D2B612B03
:10966000A52BE92B2D2C722CB72CFC2C422D882DF0
:10967000CE2D152E5C2EA32EEA2E322F7A2FC32F3D
:109680000C3055309E30E83032317D31C8311332E4
:109690005E32AA32F63243338F33DD332A347834E4
:1096A000C63414356335B23502365236A236F33637
:1096B00044379537E63738388B38DD3830398439D8
:1096C000D7392B3A803AD53A2A3B7F3BD53B2B3CC6
:1096D000823CD93C303D883DE03D393E913EEA3EFA
:1096E000443F9E3FF83F5340AE4009416541C14170
:1096F0001E427B42D84236439443F2435144B14424
:1097000010457045D14531469346F4465647B94712
:109710001B487F48E2484649AA490F4A744ADA4A38
:10972000404BA64B0D4C744CDC4C444DAD4D154E8E
:109730007F4EE84E534FBD4F28509350FF506B5112
:10974000D8514552B35220538F53FE536D54DC54BD
:109750004C55BD552E569F5611578357F65769588D
:10976000DD585159C5593A5AAF5A255B9B5B125C7B
:10977000895C015D795DF15D6A5EE35E5D5FD75F87
:109780005260CD604961C5614262BF623C63BA63A9
:109790003964B8643765B7653866B8663A67BB67D9
:1097A0003E68C0684469C7694C6AD06A556BDB6B18
:1097B000616CE86C6F6DF66D7E6E076F906F1A705E
:1097C000A4702E71B9714572D1725D73EA737874A9
:1097D000067595752476B3764377D4776578F778F0
:1097E00089791C7AAF7A437BD77B6C7C017D977D2E
:1097F0002D7EC47E5B7FF37F8C802581BE81588265
:10980000F3828E832984C684628500869D863C8788
:10981000DB877A881A89BB895C8AFD8AA08B428C97
:10982000E68C8A8D2E8ED38E788F1F90C5906C918A
:109830001492BD9266930F94B99464950F96BB965B
:1098400067971498C29870991E9ACE9A7D9B2E9C09
:10985000DF9C909D439EF59EA99F5DA011A1C6A18E
:109860007CA232A3E9A3A1A459A512A6CBA685A7E1
:1098700040A8FBA8B7A973AA30ABEEABACAC6BADFC
:109880002AAEEAAEABAF6CB02EB1F1B1B4B278B3E0
:109890003CB401B5C7B58DB654B71CB8E4B8ADB982
:1098A00077BA41BB0CBCD7BCA3BD70BE3DBF0BC0DB
:1098B000DAC0A9C179C24AC31BC4EDC4C0C593C6EE
:1098C00067C73CC811C9E7C9BDCA94CB6CCC45CDAC
:1098D0001ECEF8CED3CFAED08AD167D244D322D415
:1098E00001D5E0D5C0D6A1D782D864D947DA2BDB21
:1098F0000FDCF4DCD9DDC0DEA7DF8EE077E160E2CB
:109900004AE334E41FE50BE6F8E6E5E7D3E8C2E90D
:10991000B1EAA2EB93EC84ED77EE6AEF5EF052F1E0
:1099200047F23DF334F42CF524F61DF716F811F93F
:109930000CFA08FB04FC02FD00FEFFFEFFFF000026
:109940000000000000000100020003000500070005
:1099500009000C000F00120016001A001E00220061
:1099600027002C00310037003D0043004A00510021
:109970005800600068007000780081008A00940040
:109980009D00A700B200BC00C700D200DE00EA00C4
:10999000F60002010F011C012A01370145015401A3
:1099A0006201710180019001A001B001C001D101EB
:1099B000E201F3010502170229023C024E02620293
:1099C000750289029D02B102C602DB02F0020603A3
:1099D0001C03320348035F0376038E03A503BD0314
:1099E000D603EE03070420043A0453046D048804EC
:1099F000A204BD04D904F40410052C05490565052D
:109A00008205A005BD05DB05FA05180637065606D2
:109A100075069506B506D506F606170738075907E1
:109A20007B079D07BF07E207050828084B086F085A
:109A30009308B708DC08010926094C097109970940
:109A4000BE09E4090B0A320A5A0A820AAA0AD20A91
:109A5000FB0A240B4D0B760BA00BCA0BF40B1F0C4F
:109A60004A0C750CA00CCC0CF80C240D500D7D0D7F
:109A7000AA0DD80D050E330E610E900EBE0EED0E22
:109A80001D0F4C0F7C0FAC0FDC0F0D103E106F1034
:109A9000A010D2100411361169119C11CF110212BD
:109AA000351269129D12D21206133B137013A613BE
:109AB000DB13111447147E14B414EB1423155A1538
:109AC0009215CA1502163B167316AC16E6161F172A
:109AD00059179317CD17081842187D18B918F4189C
